:020000040800F2
:1000000030060020D5000008D5240008AD200008E7
:1000100000000000000000000000000000000000E0
:100020000000000000000000000000003D27000864
:100030000000000000000000F52500083F27000830
:100040000501000805010008050100080501000878
:100050000501000805010008050100080501000868
:100060000000000005010008050100080501000866
:10007000050100080501000800000000192800081B
:100080000000000000000000000000000000000070
:100090000501000800000000000000000501000844
:1000A0000000000005010008000000000000000042
:1000B0000501000805010008000000000000000024
:1000C0000348854600F0DEFB00480047453900083C
:1000D000300600200C4880F308880C480168090E9F
:1000E0000B4A914205D10B480B4901600B480C4962
:1000F00001600C4880470C480047FEE7FEE7FEE73A
:10010000FEE7FEE7FEE700003006002004000000E6
:100110001F000000341002400100000000000140F8
:1001200000000000C5270008C100000830B50B46DC
:10013000014600202022012409E00D46D5409D42C1
:1001400005D31D469540491B254695404019154647
:10015000521E002DF1DC30BDF0B51FB40646002064
:1001600082B005464024019100901BE0019922468F
:100170000F46304600F06DF9049A059B801A9941AC
:1001800010D310461946224600F053F9361A8F4113
:100190000197224601200021009F00F04AF93818FB
:1001A0004D4100902046641E0028DFDC019B009832
:1001B0002946324607B0F0BDF8B50024254600298F
:1001C00004DA0E46012400214042B141002B04DA3A
:1001D0001E46002352420125B341FFF7BDFF8C4666
:1001E00017461E46AC4203D0002540428D41AC4626
:1001F000002C02D0002657429E4161463A463346C3
:1002000001B0F0BDF0B51FB486B0002000900190A1
:1002100002900698069980B204900798090C02048F
:100220000014114307900027089D099806913E4647
:100230003C4603900398A9B20204000C0390049872
:100240002D0C154348430021224600F0F2F8C7194F
:10025000714110340E46402CECDB3846029A00F017
:10026000E8F8009A019B801800905941029801918A
:10027000103002904028CCDB00980BB0F0BD024655
:1002800070B54A40D30FDB0740002DD04A002AD07A
:10029000010E140E000212020919400A520A8418B3
:1002A000E50104465443000A120A2E045043A419DF
:1002B0004219200CC543AA18120C0125AD03521C8B
:1002C000521912047F39240400D0521C104301D467
:1002D0004000491EC2B20C06C0092018401C40084C
:1002E000802A02D003E0002070BD400840000029B1
:1002F00000DA0020184370BD70B502464A40D50FA1
:1003000040004A00ED0740085208002814D0002A97
:1003100012D0C40DD30D41020120C0055202490A7A
:10032000520AE41A091812187D34914201D3641C50
:1003300000E04900002C01DA002070BD002391424A
:1003400001D3891A0343400849000028F7D1002946
:100350000AD0914202D10121C90705E0914201D2A0
:10036000012101E00121C943E005C018401900F056
:1003700081F870BD420005D04200120E52428A42FE
:1003800001DB00207047C90508187047C217C10F6C
:10039000504010B54018CA079623002100F072F8AB
:1003A00010BD10B500229623114600F06BF810BD69
:1003B000C20F410040020123400ADB05D207090EAB
:1003C000C0187F2901DA00207047962903DC9623A4
:1003D000591AC84001E096398840002AF4D04042BA
:1003E0007047410040020122400AD205090E8018E0
:1003F0007F2901DA00207047962903DC9622511AE2
:10040000C8407047963988407047C20FD2074000F5
:1004100040080BD0C10D0723DB01C91840020905B4
:10042000400A1143C20840071143704700200146AB
:10043000704710B5202A04DB0146203A9140002085
:1004400010BD914020239C1A0346E340194390407D
:1004500010BD10B5202A04DB0846203AD040002108
:1004600010BD0B46D340D0402024A21A914008432F
:10047000194610BD002904DA401C490001D140088A
:100480004000704770B40024050C05D1102400040E
:1004900002D1002921D01124050E01D10002083417
:1004A000050F01D10001241D850F01D18000A41C7E
:1004B000002801DB4000641C002908D020252E1BE9
:1004C0000D46F540A14000D0012129430843010613
:1004D0001B1B000ADB1D02D5002070BC7047DB052A
:1004E000181880180029F8DA401C4900F5D170BCB2
:1004F0004008400070470000F0B5074608465840E5
:1005000087B0C00F049048000E46590040084908C3
:10051000BC1A884105D2384631461E4617460B465E
:1005200002465800400810434CD0300D039040055F
:100530005900400D490D0590401A0290402872DA8A
:1005400018030121000B090508430190049800924B
:10055000002805D001995242002088410092019064
:10056000029840210A1A01990098FFF762FF054698
:100570000C466B4607CB00F097F9C0197141039AFE
:100580000E0D0023D71756401A467A40164344D022
:10059000049A002A2DD0029A012A039A15DC12052A
:1005A000C01A914101263605001C7141D20F059EEB
:1005B000D2070093019202962A46234600F094F94E
:1005C00007B0F0BD38463146FAE71605224A0F4615
:1005D000B218C01AB74101210905001C4F4100188B
:1005E0007F41114618187941E20F10436D1964419B
:1005F00013E0E2076D0815436408C2071443039A29
:1006000001261205C01A91413605001C7141CE0722
:10061000400830434908C01851412A46234600F09B
:1006200056F9CDE7FFE7049801224000C117121ADE
:1006300000238B4104983146C417381AA141EEE7D4
:1006400030B40124E407634030BC55E730B40124E2
:10065000E407614030BC4FE70000E0FFF0B51FB495
:1006600088B00B990998002448400999C00F4900A7
:1006700049080991C0070B990090490049080B915E
:1006800009990898A64608431CD00B990A98084374
:1006900018D0099801244000420D4800410D0998E6
:1006A00024050003000B204309900B980003000B66
:1006B00020430B9050181C4940180022019014460A
:1006C000104605E0002001460DB0F0BD032801DA18
:1006D000034600E003239C46C11A0AAE0AE05F000D
:1006E00008ADED5B4F00F75B7D430027AA187C4106
:1006F000491C5B1E6145F2DD410004AB5A522104E6
:10070000120C0A43240C401C0828DFDB01980290DD
:100710000099704601910090059B049A07990698EC
:1007200000F0E2F8D0E700000DFCFFFFF0B50C464A
:100730005C4085B0E40FE40703944C000026640895
:1007400059009446490802460296224321D0624647
:100750000A431ED06200570D4A000E032303550DB5
:10076000012402462C492405781B1B0B360B40182C
:1007700023432643614600901C46501AB44103D3DC
:100780000098401C009002E0921800985B410028FD
:1007900003DA0020014605B0F0BD00200121090563
:1007A0000746864611E064461D46141BB54106D334
:1007B0006546521BB341744607430C43A646CD071A
:1007C00040084908284392185B4105460D43EAD189
:1007D0001046184313D060461946504071400843F4
:1007E00006D06046101AB34106D20122002306E06B
:1007F00000220123DB0702E00122D24353100098BC
:1008000074460105381C6141029C039D0019694131
:1008100000F05DF8BFE70000FD0300004A00090397
:100820000123090B1B0519430A4B10B5520D9A42BF
:1008300002DA0020014610BD064B34339A4203DC35
:100840009A1AFFF706FE10BD034BD218FFF7F1FD11
:1008500010BD0000FF030000CDFBFFFF10B5002915
:1008600004DB0124E40740428C412146002B04DBD9
:100870001C460123DB075242A341994200D190421A
:1008800010BD0000064C0125064E05E0E36807CCCC
:100890002B430C3C98471034B442F7D3FFF714FCB9
:1008A000643F0008843F000810B5202A06DBCB1700
:1008B0000846203A1041C1170B4306E00B4613418E
:1008C000D0402024A21A91400843194610BD10B50B
:1008D000002B08DA0024401C614192185B411A4346
:1008E00001D14008400010BDF0B51FB482B00546EC
:1008F0000C0003D0084602F0CDF902E002F0CAF97C
:1009000020300246009021462846FFF792FD049BC6
:10091000059A04460F4618431143084314D018465D
:1009200010431BD0009840210A1A18460599FFF77A
:1009300090FD05460E46009A05990498FFF779FD4B
:10094000084305D0012004E02046394607B0F0BD39
:100950000020C11705430E432C43374300990E98DE
:100960006305401A7905E40A00220C43FD0A0A30A7
:1009700002D500200146E9E70105101969410C9CE8
:100980000D9D00196941FFF7A2FFDFE770B505254E
:100990002D07042400220821284600F060F9FF20DA
:1009A00001F099FD0A21112001F0E1FD2146052009
:1009B00001F0DDFD2021062001F0D9FD20210420D9
:1009C00001F0D5FD052215490A2001F0EAFD0522B6
:1009D0001249102001F0E5FD10490522491F0E20A3
:1009E00001F0DFFD0A21002001F0C1FD022000F02E
:1009F00063F80B21002001F0BAFD012208212846EE
:100A000000F02DF9872000F057F8002001F077FD65
:100A10000B2801D0002070BD012070BD23000020F4
:100A200070B505252D07042400220821284600F072
:100A300016F9FF2001F04FFD0A21112001F097FD6A
:100A40002146052001F093FD2021062001F08FFDB5
:100A50002021042001F08BFD052216490A2001F017
:100A6000A0FD05221349102001F09BFD114905222C
:100A7000491F0E2001F095FD0A21002001F077FDAD
:100A800001220821284600F0EAF80F2000F014F8AF
:100A900000220821284600F0E2F88C2000F00CF833
:100AA000002001F02CFD0A2801D0002070BD01209B
:100AB00070BD00002300002001B508480649006809
:100AC000FFF734FB009948430090411E009101D389
:100AD0000846FAE708BD000000127A002C0000204A
:100AE00031B500F0C3F8044600F0C0F80099001BCF
:100AF0008842F9D338BD0000F8B50023012498E0FE
:100B000027469F403A4070D04D68022D01D0122DEB
:100B100014D1DD08AD002D1800952D6A5E07AC4696
:100B2000F50E0F26AE46AE406546B543AC460E699F
:100B30007546AE4065462E43009D2E624D68012DE0
:100B400005D0022D03D0112D01D0122D16D18568AC
:100B50000326AC465D00AE46AE406546B543AC46A6
:100B6000CE687546AE4065462E43866046680D7970
:100B7000BE43ED06ED0F9D403543456006685F00BE
:100B80000325BD40AE46AE430D79B446AE07B60F61
:100B9000BE4065462E430660C6687546AE438D6806
:100BA000BD403543C5604D68ED0041D5244D6E6BA9
:100BB00026436E639E08234DB6007519AC46AD689A
:100BC0009E07360F0F27B740BD4305273F07B842A2
:100BD00001D100270BE01C4FB84201D1012706E0EC
:100BE0001A4FB84202D1022701E021E00627B740A0
:100BF0002F436546AF60164D2E684F689643FF033E
:100C000000D516432E606E684F689643BF0300D52B
:100C100016436E60AE684F689643FF0200D51643D8
:100C2000AE60EE684F689643BF0200D51643EE6093
:100C30005B1C0A681546DD4000D061E7F8BD000086
:100C40000010024000000140000400500008005065
:100C5000000401400069084000D001207047002ACC
:100C600001D08161704781627047000001480068CF
:100C7000704700002800002070B5024640325378CB
:100C8000202B1CD11378012B19D00123137024249D
:100C90005470046825689D432560046825681E0318
:100CA000B5432560046825680D4325600068016828
:100CB00019430160202050700020107070BD022088
:100CC00070BD70B5024640325378202B1BD113788B
:100CD000012B18D0012414702423537003681D685D
:100CE000A5431D6005682B680F263602B343090231
:100CF0001943296000680168214301602020507079
:100D00000020107070BD022070BD000070B504009E
:100D100006D02546403568780026002802D005E038
:100D2000012070BD2E70204600F0A2F924206870CA
:100D3000206801684908490001600F2160680906C0
:100D400088432168086121688A680120C0038243C2
:100D50008A60E1680129A16808D02122920211432A
:100D600022689160E168022902D005E00143F7E7BB
:100D700001212268C902516021684A680F4B1A4359
:100D80004A602168CA688243CA6061692069084371
:100D9000A169090208432168C860216AE069084323
:100DA00021680860206801680122114301606664BF
:100DB000202068702663AE70002070BD00800002A5
:100DC000FFB5054604464035687883B0202872D1C7
:100DD0000C98002870D00D9800286DD02878012834
:100DE00069D001202870FFF741FF074601220090DB
:100DF0001923D103204601F025FA002875D12220BD
:100E000068704020A870002666640C9860620D9897
:100E1000608566630E980090019704A90EC920466C
:100E200001F090F9002804D0606C2E7004285FD087
:100E30005BE0618D3748FF2905D9FF222285012318
:100E40001B06009006E0618D21850090208D012316
:100E5000C2B25B062046049901F0E0F90097002237
:100E6000042120460E9B01F0EDF900283DD12068B9
:100E7000416A606A421C62620170208D401E81B22C
:100E80002185608D401E6085002921D1608D00285C
:100E90001ED000970022802120460E9B01F0D2F93F
:100EA000002822D1608DFF2807D9FF222285012347
:100EB0001B06009608E02AE01AE0608D2085009667
:100EC000208D0123C2B25B062046049901F0A6F9E9
:100ED000608D0028C2D13A4620460E9901F0D6F91D
:100EE000002807D0606C042802D0032007B0F0BDB2
:100EF0000120FBE721682020C86121684A68064B71
:100F00001A404A606870AE702E700020EEE7022032
:100F1000ECE700000024008000E800FEFFB5054675
:100F200004464035687883B0202876D10C98002894
:100F300074D00D98002871D0287801286DD0012038
:100F40002870FFF793FE0746012200901923D10372
:100F5000204601F077F9002853D121206870402005
:100F6000A870002666640C9860620D9860856663C0
:100F70000E980090019704A90EC9204601F018F9B7
:100F8000002804D0606C2E7004286AD039E0608D8F
:100F9000FF2805D9FF22228501231B06009606E0C3
:100FA000608D20850096208D0123C2B25B0620460D
:100FB000049901F033F93A4620460E9901F08DF973
:100FC000002803D0606C04284BD01AE0606A411CF2
:100FD0006162216800788862608D401E6085208D86
:100FE000401E0004000C208524D1608D002821D0F3
:100FF00000970022802120460E9B01F023F9002853
:1010000002D0032007B0F0BD608DFF2807D9FF2272
:10101000228501231B06009608E024E021E0608D74
:1010200020850096208D0123C2B25B0620460499DC
:1010300001F0F4F8608D0028BDD13A4620460E99A3
:1010400001F024F90028BDD120682021C161206869
:101050004268064B1A4042606970AE702E700020E4
:10106000D0E70120CEE70220CCE7000000E800FE38
:1010700000B500680D4985B0884214D103204002B4
:10108000009012200190012103200390029104910D
:10109000052069460007FFF72FFD0548816B0122F7
:1010A00052051143816305B000BD000000540040AB
:1010B0000010024002480168491C016070470000AE
:1010C0002800002010B50648016840221143016045
:1010D000002000F007F800F019F8002010BD000013
:1010E0000020024010B5044607487D21C900006871
:1010F000FFF71CF800F08AFD00222146501E00F088
:101100002BF8002010BD00002C00002010B50C486A
:10111000416B012211434163816B020411438163DE
:1011200000221146501F00F017F800221146901EB1
:1011300000F012F800221146501E00F00DF810BD0C
:1011400000100240C106C90E012088400149086014
:101150007047000000E100E010B501F029FA10BD71
:10116000F8B53A49034601240020E403364D374AD6
:101170004031022B31D0042B49D0082B56D0202BE4
:101180000BD10B69096903252D0429406700A600CE
:10119000B94203D199052CE02046F8BDB14203D1F4
:1011A0009907FAD52A48F8BDA942FCD111688903EC
:1011B000F9D5116803200005014001200005091A36
:1011C00009D0091A05D0814201D12248F8BD224830
:1011D000F8BD2248F8BD2248F8BDCB680C26334044
:1011E0000AD0082B0BD0042B0ED00C2BF4D109699C
:1011F00089050029D0DBF8BD00F0EEF8F8BD1168D4
:101200004907FBD52846F8BD00F006F9F8BDCB68C4
:101210000326B6023340EFD00127FF02BB42EED0D7
:101220007A109342F0D0B342E1D0F8BDC9680323ED
:101230001B031940E0D0012464036310A142DED0F7
:101240009942E1D0F8BD00000024F40000100240F3
:101250008890000020A1070000093D0040420F00D7
:1012600080841E00F8B5054653480E460068C00746
:10127000C00FB0420AD250480168490849003143C2
:1012800001600068C007C00FB0426FD128784B4C96
:10129000800705D5E068F0218843A9680843E0602D
:1012A0002878C00752D06868022817D0032818D0C1
:1012B0002168012818D08905002957DAE1688908D2
:1012C00089000143E160FFF7D1FC69680746022904
:1012D00012D003291CD0012926D033E021688903CC
:1012E000EAE721688901E7E74907E5E7FFF7BEFC80
:1012F000C11B3348814223D8E0680007800F0228D1
:10130000F4D123E0FFF7B2FCC11B2D48814217D86E
:10131000E0680007800F0328F4D117E0FFF7A6FC70
:10132000C11B274881420BD8E0680007800F0128C5
:10133000F4D10BE0FFF79AFCC11B2148814201D98F
:101340000320F8BDE0680007800FF3D11A48016858
:10135000C907C90FB1420BD9016849084900314397
:1013600001600068C007C00FB04201D00120F8BD85
:101370002878400706D5E068072109028843E96814
:101380000843E0602878000707D5E0680721C90214
:1013900088432969C9000843E06000F03DF8E1682E
:1013A000084A0906090F515CC84007490860002037
:1013B000FFF798FE0020F8BD002002400010024018
:1013C00088130000403F00082C00002001480068FE
:1013D000704700002C000020044805490068C968D7
:1013E000044A4905490F515CC84070472C00002051
:1013F00000100240593F0008044805490068C968C8
:10140000044A8904490F515CC84070472C000020F1
:1014100000100240593F000810B5184AD1680C204E
:10142000084004280BD0082810D00C2810D0506891
:101430000004410F0120C003491C884010BD106802
:10144000C00601D50E4810BD0E4810BD0E4810BD97
:1014500088020E4B000F185C0902D368890F491CE3
:10146000DB0301D5084A05E01268D20601D5044A1B
:1014700000E0044A5043FEF759FE10BD0010024040
:1014800000093D000024F40000127A00503F0008DB
:10149000F8B504460078F24DC0074AD0E868000766
:1014A000800F022807D0E8680007800F032809D1C1
:1014B000E868C00306D5286880033AD5606800282C
:1014C00073D036E0012062680004824203D12968AB
:1014D0000143296011E0052301211B0489049A427C
:1014E0002A6802D10A432A60F1E782432A602A6807
:1014F00002400092286888432860606800280CD069
:10150000FFF7B4FB064604E0FFF7B0FB801B64283E
:101510007ED828688003F7D50BE0FFF7A7FB0646C7
:1015200004E0FFF7A3FB801B6428F1D82868800340
:10153000F7D42078800741D5E8681F270007800F7F
:101540003F02012807D0E8680007800F032809D16F
:10155000E868C00306D42868400717D5E06801286A
:1015600023D113E0E068002817D0296809229143AD
:1015700001432960FFF77AFB064604E0FFF776FB9C
:10158000801B0228C4D828684007F7D568682169FD
:10159000B84309020843686010E02868400840002A
:1015A0002860FFF763FB064605E090E0FFF75EFB6F
:1015B000801B0228ACD828684007F7D42078C006E2
:1015C00076D5E868A74E0007800F0BD0A0690028E9
:1015D0005DD02868FF21013108432860FFF746FBF2
:1015E000074644E02868800502D5A06900286ED02F
:1015F000206A69683140884212D900F0FDFF002856
:10160000AED16868216AB04308436860686800E04A
:10161000BBE00002217F000A0906084368600FE072
:101620006968B143014369606868217F0002000A6C
:10163000090608436860206A00F0DEFF00288FD1A9
:10164000206A410B0120C003491C8840E968090653
:101650000A0F8549895CC840844908600020FFF76B
:1016600041FD25E0FFF702FBC01B02288AD828684D
:101670008005F7D56868216AB043084368606868E8
:10168000217F0002000A09060843686010E029680B
:10169000FF20013081432960FFF7E8FA064604E0A5
:1016A000FFF7E4FA801B02286FD828688005F7D47A
:1016B00020786F4E000723D560690028306910D06C
:1016C000012108433061FFF7D1FA074605E0C5E084
:1016D000FFF7CCFAC01B022857D830698007F7D52E
:1016E0000EE0400840003061FFF7C0FA074604E012
:1016F000FFF7BCFAC01B022847D830698007F7D42F
:101700002078400762D5A86B0027C00005D4A86BDD
:10171000012109070843A863012756480168C90544
:1017200011D40168821511430160FFF79FFA009000
:1017300005E0FFF79BFA0099401A642825D84D4828
:101740000068C005F5D5FF20A2680130824203D1B0
:1017500031690143316111E001218902002A07D07A
:1017600005231B029A4203D132690A433261EFE733
:10177000326982433261306988433061A068002851
:101780000FD0FFF773FA009007E060E0FFF76EFA02
:101790000099411A3848814259D830698005F5D5F9
:1017A0000DE0FFF763FA009006E0FFF75FFA00999B
:1017B000411A314881424AD830698005F5D4002F5A
:1017C00004D0A96B012000078143A963606A002847
:1017D00042D0E9680907890F03293FD00126360660
:1017E0000228286805D0B0432860FFF73FFA044676
:1017F0002FE0B0432860FFF739FA074604E0FFF70F
:1018000035FAC01B022822D828688001F7D4E16A83
:10181000A06AEA680843216BFD231B049A43114325
:101820000843E860286830432860FFF71FFA044641
:1018300004E0FFF71BFA001B022808D82868800183
:10184000F7D509E0FFF712FA001B022801D903209F
:10185000F8BD28688001F5D40020F8BD0120F8BD4E
:101860000010024000E00000403F00082C00002073
:1018700040100240007000408813000070B5040062
:1018800006D025464035687C0026002802D005E0B9
:10189000012070BD2E74204600F02EF802206874DE
:1018A00020680168402291430160A1686068226954
:1018B0000843E16811430843616901220843A169B3
:1018C000520211400843E1690843216A0843A16AB2
:1018D000084321680860A0690421000C0840616A7F
:1018E0000843216848602168E06A08616665012054
:1018F0006874002070BD000000B500680C4985B018
:10190000884212D10B48416B821411434163E0209D
:101910000090022001900021032003900291049185
:10192000052069460007FFF7E7F805B000BD000095
:101930000030014000100240F8B504460027684618
:10194000078026464036707C012802D0707C222811
:101950007ED100290CD0002A0AD0002B08D0307C80
:10196000012875D001203074707C012802D003E07A
:101970000120F8BD322070746765A263A387E387F6
:101980002163A386E386A764E7640125A06A6D034B
:10199000A84207D120680168A94301602068016856
:1019A0002943016020680168490603D40168402288
:1019B000114301600121FF20E268C90205308A421B
:1019C000616866D1002904D081420CD1E08E0128E3
:1019D00009D1206B21680088C860206B801C2063BF
:1019E000E08E401EE086E08E002843D1A06AA84227
:1019F00046D12068016801221203114301603FE0D3
:101A00002068C068A16B0880A06B801CA063B0E058
:101A1000002202212046069B00F026FE00287DD1F0
:101A2000206B21680088C860206B801C2063E08EDA
:101A3000401EE086E08E002808D1A06AA84205D1A9
:101A4000206801680122120311430160002200E0B6
:101A5000CCE001212046069B00F006FE00287FD145
:101A60002068C068A16B0880A06B801CA063E08F19
:101A7000401EE087E08E0028CAD1606800287BD134
:101A8000002201212046069B00F0EEFD002867D1D0
:101A9000B6E7002904D081420BD1E08E012808D19D
:101AA000206B411C216321680078C860E08E401ED5
:101AB000E086E08E002845D1A06AA84205D12068C2
:101AC0000168012212031143016000220121204616
:101AD000069B00F0C9FD002842D12068C068A16BB8
:101AE000087046E0002202212046069B00F0BCFD63
:101AF000002835D1206B411C216321680078C86023
:101B0000E08E401EE086E08E00280AD1A06AA8423E
:101B100007D1206802680121090300E020E00A43A0
:101B20000260002201212046069B00F09DFD002856
:101B300016D12068C268A06B411CA1630270E08FBF
:101B4000401EE087E08E0028CCD16068002813D1C9
:101B5000002201212046069B00F086FD002802D0CD
:101B60000320F8BD08E02068C168A06B421CA26396
:101B70000170E08F401EE087A06AA8420FD10022CA
:101B800001212046069B00F06FFD002802D0606D09
:101B900002210EE02068C06869460880088801229A
:101BA00080212046069B00F05FFD002804D0606D78
:101BB000202108436065D3E701207074A06AA84221
:101BC00011D120688168C943C9060CD4616D022215
:101BD000114361650168A9430160206801682943D8
:101BE00001603774C4E637740020BAE70220B8E712
:101BF000042204490428086902D090430861704710
:101C00001043FBE700E000E070470000094910B511
:101C1000401E884201D9012010BD074C606103219C
:101C2000081F00F0C5FC0020A061072020610020F3
:101C300010BD0000FFFFFF0000E000E010B5FFF75F
:101C4000E3FF10BD70B502462032137D012B1BD07F
:101C50000123137502245475046865687026B54322
:101C60006560046865680E68354365600468A5684A
:101C70008026B543A5600068846849680C43846089
:101C800053750020107570BD022070BD70B5040042
:101C900005D025462035687D002802D006E00120C9
:101CA00070BD00202875204600F00AF802206875F3
:101CB000211D206800F0C0FD01206875002070BD66
:101CC000006801218907884204D10348816B012201
:101CD0001143816370470000001002400222014658
:101CE00020314A7502681368012003431360487568
:101CF000002070470268D36801210B43D36000685D
:101D000002680A43026000207047F8B505460446A1
:101D10002035287D012817D001272F7502206875EE
:101D2000226890687726FF23B0431B029843906097
:101D30000868502837D00EDC202857D006DC002851
:101D40004ED0102840D14EE00220F8BD302850D0AF
:101D5000402839D13CE060282DD0702817D00122CE
:101D60001203801A0ED090422ED1CB684A6889683F
:101D7000206800F081FD20688168012292031143F0
:101D8000816021E020688168C908C900F8E7CB6854
:101D90004A688968206800F06FFD21688868B04350
:101DA0003043886010E0CA684968206800F077FD19
:101DB0005021206806E0CA684968206800F080FD6C
:101DC0006021206800F063FD6F7500202875F8BD64
:101DD000CA684968206800F062FD40212068F1E788
:101DE00000212068EEE710212068EBE72021206821
:101DF000E8E730212068E5E7704770B504460068E1
:101E000001690025C9438907002915DBC168C94359
:101E1000890711D4E91E01610120207520688069BD
:101E20008007204602D0FFF7E7FF04E000F078F8D3
:101E3000204600F076F8257520680169C9434907F6
:101E400017D4C168C943490713D40421C9430161A8
:101E500002202075206880698005800F204602D00E
:101E6000FFF7CAFF04E000F05BF8204600F059F8E5
:101E7000257520680169C943090716D4C168C9439B
:101E8000090712D40821C943016104202075206884
:101E9000C0698007204602D0FFF7AEFF04E000F0E3
:101EA0003FF8204600F03DF8257520680169C943D8
:101EB000C90617D4C168C943C90613D41021C94340
:101EC0000161082020752068C0698005800F2046C8
:101ED00002D0FFF791FF04E000F022F8204600F066
:101EE00020F8257520680169C943C90708D1C16870
:101EF000C943C90704D1891E0161204600F012F8C8
:101F000020680169C943490609D4C168C943490623
:101F100005D44021C9430161204600F004F870BD9A
:101F2000704770477047704770B5040005D025466C
:101F30006035687A002802D006E0012070BD0020DC
:101F40002872204600F026F8242068722068016874
:101F5000490849000160606A002802D0204600F06C
:101F6000C2FC204600F054FD0128E7D020684168FB
:101F70000922D20291434160206881682A2291435C
:101F8000816020680168012211430160204600F051
:101F90000FFD70BDF0B50068104985B088421BD1B7
:101FA0000F48816B012252041143816301200224F6
:101FB00000250326694671C105273F076946384653
:101FC0000495FEF799FD04200090049001AA70C2C8
:101FD00069463846FEF790FD05B0F0BD004400406C
:101FE00000100240FFB5064604466036707A83B0A2
:101FF0000D46202858D1002D0CD00598002809D076
:102000000120A1680003814207D12069002804D182
:10201000E80702D0012007B0F0BD307A012843D094
:10202000012030720020E06621207072FEF71EFE53
:10203000019027464037059838820598788218E045
:10204000788A401E788206980090002280212046DF
:10205000019B00F0D9FD002818D10120A1680003E0
:10206000814202D12069002812D021682878886234
:102070006D1C788A0028E3D1069800900022402148
:102080002046019B00F0C0FD002808D00320C2E7D5
:1020900028882168C005C00D8862AD1CE9E72020B2
:1020A000707200203072B6E70220B4E7FEE70168E4
:1020B0008A69D243920701D400228A62006881694A
:1020C000C943C90703D08169012211438161704767
:1020D000F7B5044600680E468069C043C0062CD49C
:1020E00020272546403520688069C04380060FD5EB
:1020F000701CF8D0002E05D0FEF7B8FD0299401AEA
:10210000B042F0D96F700020A87028700320FEBD87
:1021100021681020C8612068C7612046FFF7C7FF0B
:1021200020684168064A11404160042060646F7075
:102130000020A87028700120FEBD0020FEBD000018
:1021400000E800FEF8B50446164618481D46DAB207
:102150000090079F0023204600F060F83A46204692
:10216000069900F0BAF8002803D0606C04281BD050
:1021700018E02846F5B2012809D02168300A8862A3
:102180003A462046069900F0A8F80028EDD12068CC
:1021900085620097002240212046069B00F052F8FD
:1021A000002800D00320F8BD0120F8BD00200080E9
:1021B000F8B50446164618481D46DAB2C302009028
:1021C000079F204600F02AF83A462046069900F07C
:1021D00084F8002803D0606C04281BD018E028463F
:1021E000F5B2012809D02168300A88623A462046B3
:1021F000069900F072F80028EDD1206885620097FA
:10220000002280212046069B00F01CF8002800D008
:102210000320F8BD0120F8BD00200080F0B506685D
:10222000059C7568064F600D384385438805800D11
:10223000110408431843204305437560F0BD0000B6
:10224000FF63FF03F8B51C4617460E46054611E02E
:10225000601C0FD0002C05D0FEF708FD0699401A2F
:10226000A04207D92020403568700020A87028704F
:102270000320F8BD286881693046884304D00020D7
:10228000B842E5D00020F8BD0120F9E770B5164648
:102290000D4604461AE0324629462046FFF718FF4D
:1022A000002801D0012070BD002D04D0FEF7DEFC17
:1022B000801BA8420AD9616C20200143616440342C
:1022C00060700020A0702070032070BD20688069BD
:1022D000C0438006DFD4002070BD70B516460D46A1
:1022E00004461CE0324629462046FFF7F1FE00284E
:1022F00001D0012070BD681C11D0002D04D0FEF764
:10230000B5FC801BA8420AD9616C2020014361649E
:10231000403460700020A0702070032070BD2068E1
:102320008069C0438007DDD4002070BD10B5052052
:1023300002210007FEF78EFC002801D0002010BD0E
:10234000012010BDF0B51A4887B0C16A012631439B
:10235000C162C16A31400591C16A02252943C16247
:10236000C06A144F28400590002229463846FEF7DF
:1023700076FC002402946946384601960095039441
:10238000FEF7BAFB009505252D07019402946946D6
:1023900003942846FEF7B0FB18200090029469468B
:1023A000019603942846FEF7A7FB07B0F0BD000096
:1023B000001002400004005010B51248104901609E
:1023C000E121C900416000218160016141618161B9
:1023D0000122C161C2600162FEF798FC002800D0B2
:1023E000FEE700210748FEF747FC002800D0FEE783
:1023F00000210448FEF765FC002800D0FEE710BD70
:10240000005400406400002010B50E480C490160E3
:10241000FF210531416000218160C160012201611D
:10242000520282614161016210224162C261816295
:102430000721C162FFF722FA002800D0FEE710BD95
:1024400000300140B000002010B50121124886B0D4
:10245000890701607D210024C901846041606421F5
:102460000461C160FFF712FC002800D0FEE70120E4
:102470000003009069460848FFF747FC002800D099
:10248000FEE7049404A904480594FFF7DBFB002849
:1024900000D0FEE706B010BD0801002010B50C48C2
:1024A0000A4901604B21C901416000218160C1607E
:1024B00001618161C1610C22016242614162FFF7E9
:1024C00033FD002800D0FEE710BD000000440040AE
:1024D00040010020704770B5052504462D070022F5
:1024E00010212846FEF7BBFB204600F017F90446F2
:1024F000012210212846FEF7B2FB204670BD70B5C0
:10250000052504462D07002210212846FEF7A7FBCB
:10251000E006C00E00F002F9FF2000F0FFF80446CC
:10252000012210212846FEF79AFB204670BDF8B51F
:10253000052714460D4606463F070022102138465F
:10254000FEF78DFB304600F0E9F8064603E02878F8
:102550006D1C00F0E3F82046641EE4B20028F6D1BA
:10256000012210213846FEF77AFB3046F8BD70B5DF
:1025700005250E4604462D07002210212846FEF7A9
:102580006EFBE006C00E203000F0C8F8044630466E
:1025900000F0C4F8012210212846FEF760FB204617
:1025A00070BDC00610B5C00E2030FFF7C0FF10BDD3
:1025B0008307FF22DB0E9A408907090E9940002805
:1025C0000BDA0007000F0838830808489B0018182A
:1025D000C36993430B43C3617047830804489B005E
:1025E0001B181868904308431860704700ED00E01E
:1025F00000E400E07047000070B517490023CA6886
:102600001206120F18D18A6B154CD500134A02D549
:102610001268224009E08E6B01252D072E438E6340
:1026200012688E6B2240AE438E63A24204D1032116
:102630008903884200D101230A48016849084900FA
:10264000194301600068C007C00F984201D0012003
:1026500070BD002070BD00000010024000700040FE
:102660000018000000200240F8B51D4616460F462F
:102670000446FEF7FBFA3146264640360090002914
:102680001ED043E0681C1BD0002D05D0FEF7EEFAEB
:102690000099401AA84213D920684168E02291436A
:1026A00041602068026840218A43026023E021687B
:1026B0000A6882430A6021680A6802430A601FE0D0
:1026C0002068816838468843DCD124E0681C1DD02E
:1026D000002D06D0FEF7CAFA01460098081AA84253
:1026E00014D920684268E0218A434260206801686A
:1026F0004022914301600120A16A40038142D6D06B
:1027000001207074002030740320F8BD20688168B7
:1027100038468843DAD00020F8BD000001B582B009
:10272000012000030090012301AA02A90248FFF73B
:1027300003F9684600790EBDB0000020704710B55F
:10274000FEF7B8FCFFF77AFA10BD000030B51C4860
:1027500093B001680322D2029143C2148918016028
:102760000220009000241020099401250490039574
:102770006846FEF78DFE002800D0FEE70F200D9082
:102780000120800210900E950F94002111940DA845
:10279000FEF768FD002800D0FEE7FEF717FE7D215A
:1027A000C900FDF7C3FCFFF731FA0420FFF720FA58
:1027B00000221146501EFEF7CFFC13B030BD0000C2
:1027C0000070004010480168821511430160C16823
:1027D0000E4A1140C16001680D4A114001608168D4
:1027E0004908490081600168012292049143016017
:1027F000C168FD2212049143C160002101610549B5
:10280000C003886070470000001002400C40FF8841
:10281000F6FFF6FE00ED00E010B50548FFF7EDFA13
:1028200004484178491C41708178491C817010BD71
:10283000080100200000002030B5026801239B073A
:102840000C4C984201D0A04203D17025AA434D6898
:102850002A43984201D0A04204D103231B029A4389
:10286000CB681A4302608A68C262096881620121EA
:10287000416130BD0008014030B58468FF252D025C
:102880001B021343AC430B432343836030BD826878
:1028900070239A430A4307210A438260704730B588
:1028A000036A046A6408640004628469F025AC4326
:1028B000120122430A24A3430B438261036230BD09
:1028C00030B5036A1024A34303628469036A0F25A9
:1028D0002D031203AC432243A024A343090119434F
:1028E0008261016230BD10B5818CC90707D00168D3
:1028F0004A6801235B049A43836A1A434A60818CC5
:10290000890707D501684A6801231B049A43C36AF3
:102910001A434A60818C490707D501684A68012338
:102920009B049A43036B1A434A60818C090707D5BD
:1029300001684A680123DB039A43436B1A434A60E8
:10294000818CC90607D50268916801231B0399434E
:10295000836B19439160818C890607D501688A6869
:1029600001235B039A43C36B1A438A60818C490637
:1029700012D503685A6801210905046C8A43224371
:102980005A60026C8A4207D10268516803235B05D2
:102990009943436C19435160818C090607D501683E
:1029A0004A680123DB04806C9A4302434A6010BDED
:1029B000F8B500260446C666FEF758F905462068B5
:1029C0000068124F000709D501212B460022490556
:1029D0002046009700F018F900280DD12068006803
:1029E00040070BD501212B46002289052046009780
:1029F00000F00AF9002801D00320F8BD202060343F
:102A00006072A07226720020F8BD0000FFFFFF0177
:102A1000FEB50446016880682269E3691043626973
:102A2000102700261A4310430A6835466D4B1A409A
:102A300002430A6021684868032212039043E26857
:102A400010434860684A2168A069914201D0226A17
:102A500010438A680B231B029A4302438A60634A2D
:102A60002068634990420AD1C8680C2108402BD0E5
:102A700004282DD0082829D00C2810D10EE05A4A5D
:102A800090420CD1C9680320800201401CD010156F
:102A9000091A1DD0091A19D0814200D10827022035
:102AA000FEF75EFB0190504B514922684039D81324
:102AB00000929A4235D1002F0CD0022F0DD0042F56
:102AC00012D0082F1CD113E00027E8E70227E6E721
:102AD0000427E4E7FEF780FC08E00868C00601D59B
:102AE000444805E0444803E0FEF796FC002873D014
:102AF000626851005118814202D81103814201D20B
:102B0000012569E0010E06025008002330185941E2
:102B1000FDF722FB03210902384A411A914259D993
:102B2000EEE7E26982422DD13B0000F0CAF80906C7
:102B3000080B24192424241F2400019812E0FEF716
:102B40005BFC0FE008686168C00602D548082C4AA3
:102B500001E02C4A48088018FDF7E8FA86B20BE03D
:102B6000FEF75AFC616840004A08F4E761680122F8
:102B700048081204EFE70125310909013007400F29
:102B8000084327E03B0000F09CF809070A0D061DEA
:102B9000060606290600B3E7FEF71EFC14E0FEF762
:102BA0002BFC11E008686168C00602D54A0811488C
:102BB00001E011484A081018FDF7B8FA81B20098F0
:102BC000C16009E0FEF728FC61684A088018FDF73B
:102BD000ADFA80B22168C8602846FEBD61684A0827
:102BE000E9E70000F369FFEF0048004000440040BF
:102BF0004010024000093D000024F400FFFC0F00DB
:102C000000127A000048E801FFB581B017460E4671
:102C100004460A9D1DE0681C1BD0002D05D0FEF760
:102C200025F80499401AA84213D920680168FF22A8
:102C3000A1329143016020688168490849008160A0
:102C4000202060346072A07200202072032005B042
:102C5000F0BD2068C1693046884304D00020B842E6
:102C6000D9D00020F3E70120F9E700000FB410B538
:102C700004A9074B02AA039800F0FAF8044602A937
:102C8000002000F091FC204610BC08BC04B018479E
:102C9000A93500082021020C01D010211046020A9B
:102CA00001D010460839020901D01046091F8208D8
:102CB00001D01046891E420801D0881E7047081AAC
:102CC000704730B47446641E2578641CAB4200D251
:102CD0001D46635D5B00E31830BC184702E008C87E
:102CE000121F08C1002AFAD170477047002001E086
:102CF00001C1121F002AFBD170470000F0B51FB4BC
:102D000086B00998089A030D0021024314D0514857
:102D1000514A1818504305141198012810981AD0D8
:102D2000281A401C00264D4F4D49009601910490F1
:102D3000002812DA444211E01198012449A3012825
:102D400001D11098C1430698119A84600360C26053
:102D500041600BB0F0BD4042E4E70446210500208D
:102D60003F4A001C51410391029012E0E00707D056
:102D700032463B4601990098FDF770FC01910090A6
:102D800032463B4610461946FDF768FC06460F469C
:102D90006410002CEAD10498039B0028029A099938
:102DA000089806DAFDF75AFC019B009AFDF756FCDD
:102DB00005E0FDF7BBFC019B009AFDF7B7FC04465C
:102DC0000E460022284BFDF749FD03D80020C043E2
:102DD000014607E00022254B20463146FDF78CFBDB
:102DE000FDF71CFD102409E0002C0ADB0A22002359
:102DF000FDF7B2F9079B30321A55641E02460A43AA
:102E0000F2D11122641C079B121B1C19119B012B70
:102E100003D0012308430ED10AE0084304D0112057
:102E200010900020119077E71098151A6D1E0BE096
:102E30001098824202DD00236D1C03E0824201DA19
:102E400000236D1E002BEED0069811998260C160A0
:102E500030C07EE701FCFFFF104D00000000144071
:102E60000000F03F300000000000F0430000E03FB1
:102E7000FFB597B00646002518E2252877D1002433
:102E80002746FD49049400E00443761C3278012073
:102E9000203A90400842F7D130782A280ED00222FA
:102EA000307801463039092916D804990A23594344
:102EB000303940181443761C0490F1E7189802C882
:102EC00004911890002904DA012040030443484289
:102ED000049002200443761C30782E2814D104205C
:102EE00004437078761C2A2809D11898761C80C86B
:102EF000189009E00A214F43303FC719761C3078FB
:102F0000014630390929F5D930786C2810D006DC13
:102F10004C281AD068280ED06A2817D104E07428EB
:102F200013D07A2812D110E00120400504430CE0B0
:102F30000121090501E0032109050C437178814253
:102F400003D1012000052418761C761C30781190DE
:102F500066280BD013DC58287DD009DC00287BD0F4
:102F60004528F6D04628F4D047281AD1A5E118E024
:102F7000632835D0642870D0652812D19DE170286F
:102F80006CD008DC6728F1D069287BD06E280DD082
:102F90006F2806D1BAE073282ED0752871D0782812
:102FA00059D01A9A199990476D1C7EE16002400F22
:102FB000022809D003280DD00428189801680DD0E4
:102FC0000D60001D189070E11898EA1701680D60F7
:102FD0004A60F6E7189801680D80F2E70D70F0E797
:102FE00018986A4601781172001D189000205072DE
:102FF00002A80090012005E0189802C8189000204F
:103000000091C04361070DD5002101E00199491CE1
:103010000191B94212DA8142F8DB009A515C002931
:10302000F4D10BE0002101E00199491C019181429A
:10303000FADB019A0099895C0029F5D1019904987D
:103040001A9B471A21463846199A00F097FA0199B7
:10305000401945180BE04FE02CE113E04EE00098DA
:1030600000990078491C00911A9A19999047019883
:10307000401E0190401CF2D1214638461A9B199AF5
:1030800010E137E00A200021009001916002410F19
:10309000022907D0189A01CA1892C2179446032928
:1030A00008D00AE01898C01DC108C90005C91891C8
:1030B000944607E000B2C2179446042902D140B2F8
:1030C000C1178C4600226146944506DA0A46002163
:1030D000404291418C462D2102E0210504D52B214F
:1030E0006A461173012103E0E10701D02021F7E7CF
:1030F000029155E00A200AE0102008E0102000901C
:103100000021042004430191082703E00820002146
:10311000019100906002410F022907D0189A01CA5C
:10312000189200229446032908D008E01898C01D80
:10313000C108C90005C91891944603E080B204296A
:1031400000D1C0B200210291210729D5119970291F
:1031500006D0009A1021019B4A401A4305D00EE088
:1031600040216A461173012108E06146014306D0FF
:1031700030216A4611731199517302210291009A0C
:103180000821019B4A401A430AD16146014301D1FB
:10319000610705D530216A46117301217F1E029116
:1031A0001199582904D035A10E910DA90D910DE06A
:1031B00037A1F9E76146019B009AFCF7CDFF0E9B12
:1031C0008C469B5C0D9A521E0D9213706146014312
:1031D000F0D10D9805A9081A20300190600703D599
:1031E00001200004844300E001270198874201DDAB
:1031F000381A00E00020019900904118029809183F
:103200000498401A0490E00306D421461A9B199AA8
:10321000049800F0B3F94519002706E003A81A9AAC
:10322000C05D199990476D1C7F1C02988742F5DBA1
:10323000E0030CD521461A9B199A049800F09EF9D8
:10324000451904E01A9A3020199990476D1C00998D
:10325000481E00900029F5DC08E00D980D990078D3
:10326000491C0D911A9A199990476D1C0199481E95
:1032700001900029F1DC63E109280100303132338B
:1032800034353637383961626364656600000000A2
:10329000303132333435363738394142434445468C
:1032A0000000000000F05AF94519761C307800281B
:1032B00000D0E2E528461BB0F0BD600700D4062729
:1032C0001898C01DC108C90048680A680831C30FB2
:1032D000DB071891190001D09CA108E0210501D558
:1032E0009BA104E0E10701D09AA100E09AA143006C
:1032F00011985B08109165280CD006DC452809D090
:1033000046281DD0472841D141E0662818D06728BB
:103310003CD13CE00021112F01DB112000E0781CA2
:103320000191009008A911A8FFF7E8FC13990591F5
:103330000021119A15927F1C12980197009150E07C
:103340000120C00703900120019008A9009711A84F
:10335000FFF7D4FC139A149905920022119B009256
:1033600012981593059A0192002901D0104602E0A7
:10337000791C40180190381A01D5019804E04042A8
:10338000401E0090781C0190C01B029043E0012F6A
:1033900000DA01270021112F01DD112000E038465D
:1033A0000191009008A911A8FFF7A8FC13990591B5
:1033B000119A0021129815920091019721070CD4BF
:1033C0000599B94201DB019900E00191012904DD71
:1033D000159A491E515C302906D0B84201DA011D08
:1033E00005DA0121029115E00199491EEDE7002857
:1033F00005DC0099411800910199091A03E0019A2E
:10340000411C914200DD01910099401A401C02903C
:103410000120C0070390200706D402990198814239
:1034200002DB0020C043029000206946C87707AF46
:10343000012103980337C907884224D00220119044
:103440002B201290039800280CDA404203902D2084
:10345000129007E00A210398FCF768FE30317F1EC6
:10346000039039701199481E11900029F2DC0398DD
:103470000028EFD1791E129808703078202108407A
:103480004530BF1E387006A8C01BC01D03901098A1
:103490000078002800D00120019941180298C01737
:1034A0000918039809180498401A401E0490E00374
:1034B00006D421461A9B199A049800F05FF8451922
:1034C00010980078002803D01A9A199990476D1C1B
:1034D000E00324D521461A9B199A049800F04EF86F
:1034E00045191CE00098002807DB009905988842E0
:1034F00003DD1598405C199901E0199930201A9A5A
:10350000904700986D1C401C00900298401E02904D
:10351000002804D11A9A2E20199990476D1C019900
:10352000481E01900029DDDC05E038781A9A7F1CDE
:10353000199990476D1C0399481E03900029F4DCEB
:1035400021461A9B199A0498ACE600002D00000051
:103550002B0000002000000000000000F8B5044629
:1035600000251E461746880404D405E0394620206D
:10357000B0476D1C641EF9D52846F8BDFFB504465A
:10358000002581B01E46C80301D5302700E0202762
:10359000880404D505E038460399B0476D1C641EC5
:1035A000F9D5284605B0F0BD0A68531C0B601070B1
:1035B0007047F8B50546808C0C46762801D07728F0
:1035C00059D12A4601233232D021284600F0BEFBD1
:1035D000002850D12E462036B07C582801D06028D3
:1035E00049D1B622E021284600F092FC002842D1C1
:1035F00001236A46F321284600F0A8FB0028F7D1F2
:1036000068460078C007F3D1284600F03DFB00284B
:1036100032D0B07C602804D1284600F0ABFB0028F3
:103620002AD060796178400189000843C2B2F5214F
:10363000284600F06DFC00281DD12078012801D11A
:1036400000202070E078A1784001890008432178AB
:103650000843C7B2B07C602806D12279F2212846FF
:1036600000F056FC002806D13A46F421284600F026
:103670004FFC002801D00020F8BD0120F8BD032137
:103680000170002242708170C170017141717047F8
:10369000FFB5064604462036B07C83B01D46602840
:1036A00005D0002D01D000201860002503E0002D7A
:1036B00001D0082300E006236A46F721204600F0E7
:1036C00045FB002802D0002007B0F0BD6A46107804
:1036D0002388010350785F000001014390780009BE
:1036E0000143D07812790003120110436A465279DF
:1036F00012091043C2100011C01AD21B0227042362
:10370000E75F4043E35E00137A435843D2128013CD
:103710001718B80038188030049A001210603A4622
:10372000204600F06FF80599002D086036D06846F5
:10373000C088E28B40BA80031205821A4B212020F8
:103740008902205E791A4843101A012292038018D8
:103750000222B256237F4A434B43D9120123DB0393
:103760009212C9184A4391129A0189181A22A25E2C
:10377000C01351439A10891889134843C113494310
:10378000227EC91151430911401A054901D5002073
:1037900002E0884200DD084600132860012093E71C
:1037A00000000019FEB51C0015460E4601D002AB04
:1037B00000E0002301AA6946FFF76AFF00281DD038
:1037C0000098FCF7E3FD0E4F3946FCF795FD30609D
:1037D0000198FCF7E6FD0721C943FCF7CBFD39460C
:1037E000FCF78AFD2860002C07D00298FCF7D9FD71
:1037F0000921C943FCF7BEFD20600120FEBD000089
:103800000000C842F7B505464C48D11743141018BC
:10381000594184B00C46024623460290FCF7F2FC64
:103820001022AA5E06460F46D317FCF7EBFC009069
:1038300001910E20285E2346C117029AFCF7E2FC94
:103840000246C30B480418435304009A01999A187E
:1038500048410C21695EC900121C4141009201914E
:103860000A22AA5E30463946D317FCF7CBFC070A7A
:103870000A060820285E17430E12C1172346029A33
:10388000FCF7C0FC030D0A031A4300033146381845
:1038900051410122D203001C5141EA880023FCF768
:1038A000B1FC4C10CE172046304345D0012105987D
:1038B0000905081AC1174208C907C3070098114330
:1038C000019A181A91411E4A0023FCF79BFC2246DC
:1038D0003346FCF771FC06460B46DF04720B0C46C0
:1038E00016203A43285E6713C1173B460092FCF747
:1038F00089FC3B46009AFCF785FC470ECA0117433A
:103900004A1614200092285E3246C1172346FCF75F
:1039100079FC4A03C00C1043C9142346009AF419D9
:10392000534120184B411906000A08431221695ED1
:103930000901401807B0F0BD0020FBE7000CFEFFB6
:10394000350C000088B0FDF7BDFBFEF7FFFEFEF76B
:10395000F9FCFEF7A3FDFEF757FDFEF72DFDFEF780
:1039600073FD002211460F20FDF7F6FB0F20FDF737
:10397000E9FB002211461C20FDF7EEFB1C20FDF7A1
:10398000E1FB7748FEF706FB75483838FEF7A6F9E5
:1039900073483838FEF7AEF97148E4380646FFF749
:1039A0006EFE704876218184014634318162FF20A9
:1039B000F530FDF795F8FCF7E9FF6B4C6B4D0128EE
:1039C00014D06BA166487030FFF750F982B2644999
:1039D000A2802B4670316248FEF704FB0720FEF7F9
:1039E0008EFD01460720FEF7C2FD12E064A1E9E763
:1039F0005B4867A17030FFF739F982B25849A2805D
:103A00002B4670315648FEF7EDFA7D200001FDF798
:103A100067F831465348FFF7CCFD0028E8D05148FD
:103A20002030807C60281ED061A24D4862A1703099
:103A3000FFF71CF982B24A49A2802B4670314848F0
:103A4000FEF7D0FA002660780A2805D35F4841695E
:103A50000222514041616670A0783228F3D37D275D
:103A6000A6703F0111E05AA2DFE73D485AA170302D
:103A7000FFF7FCF882B23A49A2802B4670313848F1
:103A8000FEF7B0FA3846FDF72BF8374B35481033C0
:103A90001A46083A111DFFF785FE0028E5D0584F59
:103AA000A06839460290FCF7EAFBFCF79AFC80B26A
:103AB0000590206939460190FCF7E1FBFCF791FC89
:103AC00080B20690E06839460090FCF7D8FBFCF71E
:103AD0006FFC00B204900198FCF797FC0746039135
:103AE0000098FCF792FC009001910298FCF78DFC85
:103AF00002461B480B4643A170300297FFF7B6F809
:103B000082B21749A2802B4670311548FEF76AFA37
:103B10000698009012484AA17030049B059AFFF75E
:103B2000A5F882B20E49A2802B4670310C48FEF7F0
:103B300059FA0D480A21143000F07CF92078012848
:103B400081D1074826704CA17030FFF78FF882B200
:103B50000349A2802B4670310148FEF743FA72E711
:103B6000400100203000002000000020FFFF000086
:103B7000436F6E66205278204241440A0D000000D7
:103B8000436F6E66205278204F4B0A0D00000000F4
:103B9000424D5032383020696E697469616C697ABF
:103BA0006174696F6E206661696C65640A0000006B
:103BB000424D503238300000424D503238303A20B9
:103BC000666F756E642025730A0D000000040050B6
:103BD000424D45323830000054656D706572617435
:103BE0007572652F70726573737572652072656189
:103BF00064696E67206661696C65640A0000000094
:103C00000000204150726573737572653A20252E4D
:103C100032662050612C2054656D70657261747538
:103C200072653A20252E326620432C2048756D6936
:103C3000646974793A20252E32660A0D000000006E
:103C400050726573737572653A202558204750612C
:103C50002C2054656D70657261747572653A20250B
:103C60002E326620432C2048756D69646974793A58
:103C700020252E32660A0D005472616E736D6974D0
:103C8000204F4B0A0D00000010B504460246882163
:103C900000F0B2F8002856D0A21C8A21204600F07D
:103CA000ABF800284FD0221D8C21204600F0A4F84C
:103CB000002848D0A21D8E21204600F09DF8002843
:103CC00041D0224608329021204600F095F8002885
:103CD00039D022460A329221204600F08DF8002881
:103CE00031D022460C329421204600F085F800287D
:103CF00029D022460E329621204600F07DF8002879
:103D000021D0224610329821204600F075F8002874
:103D100019D0224612329A21204600F06DF8002870
:103D200011D0224614329C21204600F065F800286C
:103D300009D0224616329E21204600F05DF8002868
:103D400001D0012010BD002010BD00003EB50C4682
:103D5000818C074D0193009249040295090C806AF9
:103D600001232246FDF72CF8002800D001203EBD9B
:103D7000881300001CB50246044601231832A12115
:103D8000FFF7E4FF002827D122461A32E12120461E
:103D900000F032F800281FD0224601231C32E32114
:103DA0002046FFF7D3FF002816D16A46E4212046BB
:103DB00000F022F800280FD001AAE521204600F0EB
:103DC0001BF8002808D0224601232232E721204692
:103DD000FFF7BCFF002801D000201CBD684600880A
:103DE00001060005090D000F0143E1836846808844
:103DF0000009208401201CBD7FB51446828C02235B
:103E00005204150C03AA0092094E019302960A4629
:103E1000806A01232946FCF7D3FF002802D0002046
:103E200004B070BD6846808920800120F8E700005A
:103E30008813000070B505460C46052000220821B5
:103E40000007FCF70CFF22462946A020FEF76FFB77
:103E5000FCF7E6FD1C4E1D4C1D4D0EE0307814287D
:103E60000BD31CA12248FEF701FF82B222802B4611
:103E70001F492048FEF7B6F803E0FEF757FA01287D
:103E8000ECD11420FCF718FE0720FEF738FB1A4E81
:103E9000800602D5012030700AE018A11448FEF710
:103EA000E5FE82B222802B4611491248FEF79AF8AD
:103EB0000720FEF724FB01460720FEF758FBFCF71E
:103EC00065FD307870BD0000020000200400002075
:103ED000FFFF000049206469646E74207761697493
:103EE00020696E746572727570742828280A0D0036
:103EF000B001002040010020000000205472616EDB
:103F0000736D6974204261642121210A0D00000053
:103F100037B5828C84B05204140C06AA0092074D67
:103F20000123029501930A46806A2146FCF7F6FFB9
:103F3000002800D0012007B030BD0000102700008D
:103F40000000000000000000010203040607080949
:103F5000030406080C1018203000000000010203C2
:103F600004000000843F0008000000203000000032
:103F7000DC2C0008B43F00083000002000060000E0
:103F8000EC2C000800000000000000000000000011
:103F900000000000000000004675636B6564206F40
:103FA00066664D4554454F4D4554454F0000000051
:043FB00080841E00EB
:04000005080000C12E
:00000001FF
