:020000040800F2
:1000000048060020D50000086926000801220008E3
:1000100000000000000000000000000000000000E0
:10002000000000000000000000000000312900086E
:100030000000000000000000A1270008332900088C
:1000400005010008892700084D280008050100085F
:100050000501000805010008050100080501000868
:100060000000000005010008050100080501000866
:100070000501000805010008000000003D2A0008F5
:100080000000000000000000000000000000000070
:100090000501000800000000000000000501000844
:1000A0000000000005010008000000000000000042
:1000B0000501000805010008000000000000000024
:1000C0000348854600F0F8FA00480047113600085A
:1000D000480600200C4880F308880C480168090E87
:1000E0000B4A914205D10B480B4901600B480C4962
:1000F00001600C4880470C480047FEE7FEE7FEE73A
:10010000FEE7FEE7FEE700004806002004000000CE
:100110001F000000341002400100000000000140F8
:1001200000000000E9290008C100000830B50B46B6
:10013000014600202022012409E00D46D5409D42C1
:1001400005D31D469540491B254695404019154647
:10015000521E002DF1DC30BDF0B51FB40646002064
:1001600082B005464024019100901BE0019922468F
:100170000F46304600F0EEF9049A059B801A99412B
:1001800010D310461946224600F0D4F9361A8F4192
:100190000197224601200021009F00F0CBF938187A
:1001A0004D4100902046641E0028DFDC019B009832
:1001B0002946324607B0F0BDF8B50024254600298F
:1001C00004DA0E46012400214042B141002B04DA3A
:1001D0001E46002352420125B341FFF7BDFF8C4666
:1001E00017461E46AC4203D0002540428D41AC4626
:1001F000002C02D0002657429E4161463A463346C3
:1002000001B0F0BDF0B51FB486B0002000900190A1
:1002100002900698069980B204900798090C02048F
:100220000014114307900027089D099806913E4647
:100230003C4603900398A9B20204000C0390049872
:100240002D0C154348430021224600F073F9C719CD
:10025000714110340E46402CECDB3846029A00F017
:1002600069F9009A019B8018009059410298019108
:10027000103002904028CCDB00980BB0F0BD024655
:1002800070B54A40D30FDB0740002DD04A002AD07A
:10029000010E140E000212020919400A520A8418B3
:1002A000E50104465443000A120A2E045043A419DF
:1002B0004219200CC543AA18120C0125AD03521C8B
:1002C000521912047F39240400D0521C104301D467
:1002D0004000491EC2B20C06C0092018401C40084C
:1002E000802A02D003E0002070BD400840000029B1
:1002F00000DA0020184370BD70B502464A40D50FA1
:1003000040004A00ED0740085208002814D0002A97
:1003100012D0C40DD30D41020120C0055202490A7A
:10032000520AE41A091812187D34914201D3641C50
:1003300000E04900002C01DA002070BD002391424A
:1003400001D3891A0343400849000028F7D1002946
:100350000AD0914202D10121C90705E0914201D2A0
:10036000012101E00121C943E005C018401900F056
:1003700002F970BD420005D04200120E52428A427C
:1003800001DB00207047C90508187047F0B51FB49D
:1003900088B00B990998002448400999C00F49007A
:1003A00049080991C0070B990090490049080B9131
:1003B00009990898A64608431CD00B990A98084347
:1003C00018D0099801244000420D4800410D0998B9
:1003D00024050003000B204309900B980003000B39
:1003E00020430B9050181C494018002201901446DD
:1003F000104605E0002001460DB0F0BD032801DAEB
:10040000034600E003239C46C11A0AAE0AE05F00DF
:1004100008ADED5B4F00F75B7D430027AA187C41D8
:10042000491C5B1E6145F2DD410004AB5A522104B8
:10043000120C0A43240C401C0828DFDB01980290B0
:100440000099704601910090059B049A07990698BF
:1004500000F0DFF8D0E700000DFCFFFFC217C10F6E
:10046000504010B54018CA079623002100F08BF8C1
:1004700010BD10B500229623114600F084F810BD7F
:100480000EB505490291002100910A460B460191E3
:1004900000F0BFF803B000BD33040000C20F4100FC
:1004A00040020123400ADB05D207090EC0187F294C
:1004B00001DA00207047962903DC9623591AC840B8
:1004C00001E096398840002AF4D04042704741004C
:1004D00040020122400AD205090E80187F2901DA64
:1004E00000207047962903DC9622511AC8407047B5
:1004F00096398840704700004A0009030123090B20
:100500001B051943094B10B5520D9A4201DA002020
:1005100010BD064B34339A4203DC9A1A00F01AF8E5
:1005200010BD03495118884010BD0000FF030000B2
:10053000CDFBFFFF10B5202A04DB0146203A914095
:10054000002010BD914020239C1A0346E34019432C
:10055000904010BD10B5202A04DB0846203AD04058
:10056000002110BD0B46D340D0402024A21A914058
:100570000843194610BD002904DA401C490001D186
:1005800040084000704770B40024050C05D11024C9
:10059000000402D1002921D01124050E01D100024E
:1005A0000834050F01D10001241D850F01D1800001
:1005B000A41C002801DB4000641C002908D0202571
:1005C0002E1B0D46F540A14000D0012129430843D0
:1005D00001061B1B000ADB1D02D5002070BC704702
:1005E000DB05181880180029F8DA401C4900F5D1FD
:1005F00070BC40084000704710B5002B08DA00249A
:10060000401C614192185B411A4301D140084000EF
:1006100010BDF0B51FB482B005460C0003D00846EB
:1006200002F04AFC02E002F047FC20300246009053
:1006300021462846FFF77EFF049B059A04460F4695
:1006400018431143084314D0184610431BD0009898
:1006500040210A1A18460599FFF77CFF05460E4609
:10066000009A05990498FFF765FF084305D001201B
:1006700004E02046394607B0F0BD0020C11705430D
:100680000E432C43374300990E986305401A7905B1
:10069000E40A00220C43FD0A0A3002D5002001467C
:1006A000E9E70105101969410C9C0D9D001969418C
:1006B000FFF7A2FFDFE70000064C0125064E05E02C
:1006C000E36807CC2B430C3C98471034B442F7D373
:1006D000FFF7FAFC883A0008A83A000810B505248C
:1006E000240700220821204600F059F9FF2001F0DC
:1006F000BCFF0921112002F004F80A21052002F0B4
:1007000000F82021062001F0FCFF3021042001F038
:10071000F8FF052215490A2002F00DF805221349B9
:10072000102002F008F811490522891F0E2002F05E
:1007300002F80E21002001F0E4FF032000F05CF835
:100740000F21002001F0DDFF01220821204600F0EA
:1007500026F98C2000F050F8002001F09AFF0F28B5
:1007600001D0002010BD012010BD0000220000209B
:1007700010B50524240700220821204600F00FF9B7
:10078000FF2001F072FF0921112001F0BAFF0A21B8
:10079000052001F0B6FF2021062001F0B2FF302134
:1007A000042001F0AEFF052212490A2001F0C3FF28
:1007B00005221049102001F0BEFF0E21002001F09B
:1007C000A0FF01220821204600F0E9F80F2000F0E8
:1007D00013F800220821204600F0E1F88C2000F0F8
:1007E0000BF8002001F055FF0E2801D0002010BDAD
:1007F000012010BD2200002001B50848064900680C
:10080000FFF794FC009948430090411E009101D3EA
:100810000846FAE708BD000000127A002C0000200C
:1008200031B500F0C3F8044600F0C0F80099001B91
:100830008842F9D338BD0000F8B50023012498E0C0
:1008400027469F403A4070D04D68022D01D0122DAE
:1008500014D1DD08AD002D1800952D6A5E07AC4659
:10086000F50E0F26AE46AE406546B543AC460E6962
:100870007546AE4065462E43009D2E624D68012DA3
:1008800005D0022D03D0112D01D0122D16D185686F
:100890000326AC465D00AE46AE406546B543AC4669
:1008A000CE687546AE4065462E43866046680D7933
:1008B000BE43ED06ED0F9D403543456006685F0081
:1008C0000325BD40AE46AE430D79B446AE07B60F24
:1008D000BE4065462E430660C6687546AE438D68C9
:1008E000BD403543C5604D68ED0041D5244D6E6B6C
:1008F00026436E639E08234DB6007519AC46AD685D
:100900009E07360F0F27B740BD4305273F07B84264
:1009100001D100270BE01C4FB84201D1012706E0AE
:100920001A4FB84202D1022701E021E00627B74062
:100930002F436546AF60164D2E684F689643FF0300
:1009400000D516432E606E684F689643BF0300D5EE
:1009500016436E60AE684F689643FF0200D516439B
:10096000AE60EE684F689643BF0200D51643EE6056
:100970005B1C0A681546DD4000D061E7F8BD000049
:100980000010024000000140000400500008005028
:10099000000401400069084000D001207047002A8F
:1009A00001D0816170478162704700000148006892
:1009B000704700002800002070B50246403253788E
:1009C000202B1CD11378012B19D001231370242460
:1009D0005470046825689D432560046825681E03DB
:1009E000B5432560046825680D43256000680168EB
:1009F00019430160202050700020107070BD02204B
:100A000070BD70B5024640325378202B1BD113784D
:100A1000012B18D0012414702423537003681D681F
:100A2000A5431D6005682B680F263602B3430902F3
:100A3000194329600068016821430160202050703B
:100A40000020107070BD022070BD000070B5040061
:100A500006D02546403568780026002802D005E0FB
:100A6000012070BD2E70204600F0A2F9242068708D
:100A7000206801684908490001600F216068090683
:100A800088432168086121688A680120C003824385
:100A90008A60E1680129A16808D0212292021143ED
:100AA00022689160E168022902D005E00143F7E77E
:100AB00001212268C902516021684A680F4B1A431C
:100AC0004A602168CA688243CA6061692069084334
:100AD000A169090208432168C860216AE0690843E6
:100AE0002168086020680168012211430160666482
:100AF000202068702663AE70002070BD0080000268
:100B0000FFB5054604464035687883B0202872D189
:100B10000C98002870D00D9800286DD028780128F6
:100B200069D001202870FFF741FF0746012200909D
:100B30001923D103204601F02FFC002875D1222073
:100B400068704020A870002666640C9860620D985A
:100B5000608566630E980090019704A90EC920462F
:100B600001F09AFB002804D0606C2E7004285FD03E
:100B70005BE0618D3748FF2905D9FF2222850123DB
:100B80001B06009006E0618D21850090208D0123D9
:100B9000C2B25B062046049901F0EAFB00970022EE
:100BA000042120460E9B01F0F7FB00283DD1206870
:100BB000416A606A421C62620170208D401E81B2EF
:100BC0002185608D401E6085002921D1608D00281F
:100BD0001ED000970022802120460E9B01F0DCFBF6
:100BE000002822D1608DFF2807D9FF22228501230A
:100BF0001B06009608E02AE01AE0608D208500962A
:100C0000208D0123C2B25B062046049901F0B0FB9F
:100C1000608D0028C2D13A4620460E9901F0E0FBD3
:100C2000002807D0606C042802D0032007B0F0BD74
:100C30000120FBE721682020C86121684A68064B33
:100C40001A404A606870AE702E700020EEE70220F5
:100C5000ECE700000024008000E800FEFFB5054638
:100C600004464035687883B0202876D10C98002857
:100C700074D00D98002871D0287801286DD00120FB
:100C80002870FFF793FE0746012200901923D10335
:100C9000204601F081FB002853D1212068704020BC
:100CA000A870002666640C9860620D986085666383
:100CB0000E980090019704A90EC9204601F022FB6E
:100CC000002804D0606C2E7004286AD039E0608D52
:100CD000FF2805D9FF22228501231B06009606E086
:100CE000608D20850096208D0123C2B25B062046D0
:100CF000049901F03DFB3A4620460E9901F097FB1E
:100D0000002803D0606C04284BD01AE0606A411CB4
:100D10006162216800788862608D401E6085208D48
:100D2000401E0004000C208524D1608D002821D0B5
:100D300000970022802120460E9B01F02DFB002809
:100D400002D0032007B0F0BD608DFF2807D9FF2235
:100D5000228501231B06009608E024E021E0608D37
:100D600020850096208D0123C2B25B06204604999F
:100D700001F0FEFA608D0028BDD13A4620460E995A
:100D800001F02EFB0028BDD120682021C161206820
:100D90004268064B1A4042606970AE702E700020A7
:100DA000D0E70120CEE70220CCE7000000E800FEFB
:100DB00000B500680D4985B0884214D10320400277
:100DC00000901220019001210320039002910491D0
:100DD000052069460007FFF72FFD0548816B0122BA
:100DE00052051143816305B000BD0000005400406E
:100DF0000010024002480168491C01607047000071
:100E00002800002010B50648016840221143016007
:100E1000002000F007F800F019F8002010BD0000D5
:100E20000020024010B5044607487D21C900006833
:100E3000FFF77CF900F094FF00222146501E00F0DD
:100E40002BF8002010BD00002C00002010B50C482D
:100E5000416B012211434163816B020411438163A1
:100E600000221146501F00F017F800221146901E74
:100E700000F012F800221146501E00F00DF810BDCF
:100E800000100240C106C90E0120884001490860D7
:100E90007047000000E100E010B501F053FC10BD08
:100EA000174A1168E02399430368194311601549F3
:100EB0004B680122120493434B600B6893430B6011
:100EC000CB689343CB608B6893438B604368DB03B1
:100ED00002D50B6813430B6043689B0302D54B6834
:100EE00013434B600379DB0702D08B6813438B609D
:100EF0000079800702D5C8681043C86070470000B9
:100F0000007000400004014002480168821511434E
:100F100001607047007000400248016810221143D0
:100F200001607047007000400548016802221143CB
:100F300001600448016904221143016130BF704718
:100F40000070004000ED00E07047000010B5054C57
:100F50006069C00304D5FFF7F7FF0120000460615A
:100F600010BD000000040140F8B53A4903460124D1
:100F70000020E403364D374A4031022B31D0042B98
:100F800049D0082B56D0202B0BD10B6909690325BA
:100F90002D0429406700A600B94203D199052CE031
:100FA0002046F8BDB14203D19907FAD52A48F8BDC9
:100FB000A942FCD111688903F9D511680320000505
:100FC000014001200005091A09D0091A05D0814203
:100FD00001D12248F8BD2248F8BD2248F8BD224878
:100FE000F8BDCB680C2633400AD0082B0BD0042B5D
:100FF0000ED00C2BF4D1096989050029D0DBF8BD8E
:1010000000F096F9F8BD11684907FBD52846F8BDF0
:1010100000F0AEF9F8BDCB680326B6023340EFD03E
:101020000127FF02BB42EED07A109342F0D0B342C8
:10103000E1D0F8BDC96803231B031940E0D00124A7
:1010400064036310A142DED09942E1D0F8BD0000F4
:101050000024F400001002408890000020A1070046
:1010600000093D0040420F0080841E00F8B5044690
:1010700000784F4D800672D54D4E0027403EB06B34
:10108000C00004D4B06BA9050843B06301274948E8
:101090000168C90511D40168821511430160FFF789
:1010A00085FC009005E0FFF781FC0099401A642858
:1010B00037D840480068C005F5D5326803210905D6
:1010C00060680A400140914208D08103890F0329DA
:1010D00004D13168890301D50120F8BD2A690321B3
:1010E00009040A4022D0084090421FD02078800690
:1010F0001CD528692A6988430121C9040A432A6149
:101100002A698A432A612861C0050FD5FFF74EFC82
:10111000009008E0FFF74AFC0099411A26488142F6
:1011200001D90320F8BD28698005F3D561688803DB
:10113000800F032805D132680005824301400A432D
:101140003260286903226168120411400843286153
:10115000002F04D0B16B012000078143B1632078D8
:10116000800705D5E8680C218843A1680843E8603A
:101170002078400706D5E868032189028843E168A2
:101180000843E8602078000706D5E86803210903D2
:10119000884321690843E8602078000606D5E8689E
:1011A00003218904884361690843E8600020F8BD91
:1011B000401002400070004088130000F8B505465A
:1011C00053480E460068C007C00FB0420AD25048CC
:1011D000016849084900314301600068C007C00F39
:1011E000B0426FD128784B4C800705D5E068F021DC
:1011F0008843A9680843E0602878C00752D068682F
:10120000022817D0032818D02168012818D0890592
:10121000002957DAE168890889000143E160FFF796
:10122000C5FB69680746022912D003291CD0012991
:1012300026D033E021688903EAE721688901E7E7DE
:101240004907E5E7FFF7B2FBC11B3348814223D8CA
:10125000E0680007800F0228F4D123E0FFF7A6FB27
:10126000C11B2D48814217D8E0680007800F032872
:10127000F4D117E0FFF79AFBC11B274881420BD836
:10128000E0680007800F0128F4D10BE0FFF78EFB28
:10129000C11B2148814201D90320F8BDE068000745
:1012A000800FF3D11A480168C907C90FB1420BD9A1
:1012B000016849084900314301600068C007C00F58
:1012C000B04201D00120F8BD2878400706D5E0687B
:1012D000072109028843E9680843E060287800078D
:1012E00007D5E0680721C90288432969C900084376
:1012F000E06000F03DF8E168084A0906090F515C1A
:10130000C840074908600020FFF78CFD0020F8BDA9
:10131000002002400010024088130000643A0008D8
:101320002C00002001480068704700002C000020BD
:10133000044805490068C968044A4905490F515CD9
:10134000C84070472C000020001002407D3A000881
:10135000044805490068C968044A8904490F515C7A
:10136000C84070472C000020001002407D3A000861
:1013700010B5184AD1680C20084004280BD0082862
:1013800010D00C2810D050680004410F0120C00379
:10139000491C884010BD1068C00601D50E4810BD1C
:1013A0000E4810BD0E4810BD88020E4B000F185C91
:1013B0000902D368890F491CDB0301D5084A05E0FF
:1013C0001268D20601D5044A00E0044A5043FEF7F1
:1013D000ADFE10BD0010024000093D000024F400E5
:1013E00000127A00743A0008F8B504460078F24D0D
:1013F000C0074AD0E8680007800F022807D0E868D5
:101400000007800F032809D1E868C00306D52868C3
:1014100080033AD56068002873D036E00120626806
:101420000004824203D129680143296011E00523A9
:1014300001211B0489049A422A6802D10A432A60C6
:10144000F1E782432A602A680240009228688843B4
:101450002860606800280CD0FFF7A8FA064604E070
:10146000FFF7A4FA801B64287ED828688003F7D58C
:101470000BE0FFF79BFA064604E0FFF797FA801BA4
:101480006428F1D828688003F7D42078800741D5F4
:10149000E8681F270007800F3F02012807D0E8688F
:1014A0000007800F032809D1E868C00306D4286824
:1014B000400717D5E068012823D113E0E068002831
:1014C00017D029680922914301432960FFF76EFA7A
:1014D000064604E0FFF76AFA801B0228C4D8286891
:1014E0004007F7D568682169B84309020843686076
:1014F00010E02868400840002860FFF757FA0646C9
:1015000005E090E0FFF752FA801B0228ACD828686B
:101510004007F7D42078C00676D5E868A74E0007C4
:10152000800F0BD0A06900285DD02868FF21013111
:1015300008432860FFF73AFA074644E02868800528
:1015400002D5A06900286ED0206A696831408842BF
:1015500012D901F027F90028AED16868216AB0439A
:1015600008436860686800E0BBE00002217F000A71
:101570000906084368600FE06968B1430143696088
:101580006868217F0002000A090608436860206A33
:1015900001F008F900288FD1206A410B0120C00317
:1015A000491C8840E96809060A0F8549895CC840DA
:1015B000844908600020FFF735FC25E0FFF7F6F9C5
:1015C000C01B02288AD828688005F7D56868216A78
:1015D000B043084368606868217F0002000A09067A
:1015E0000843686010E02968FF20013081432960CA
:1015F000FFF7DCF9064604E0FFF7D8F9801B022864
:101600006FD828688005F7D420786F4E000723D55F
:1016100060690028306910D0012108433061FFF76C
:10162000C5F9074605E0C5E0FFF7C0F9C01B022871
:1016300057D830698007F7D50EE040084000306188
:10164000FFF7B4F9074604E0FFF7B0F9C01B022822
:1016500047D830698007F7D42078400762D5A86B57
:101660000027C00005D4A86B012109070843A8631F
:10167000012756480168C90511D401688215114334
:101680000160FFF793F9009005E0FFF78FF90099EB
:10169000401A642825D84D480068C005F5D5FF20BC
:1016A000A2680130824203D131690143316111E006
:1016B00001218902002A07D005231B029A4203D187
:1016C00032690A433261EFE732698243326130693D
:1016D00088433061A06800280FD0FFF767F90090B9
:1016E00007E060E0FFF762F90099411A384881424B
:1016F00059D830698005F5D50DE0FFF757F900900E
:1017000006E0FFF753F90099411A314881424AD85F
:1017100030698005F5D4002F04D0A96B01200007A3
:101720008143A963606A002842D0E9680907890FEC
:1017300003293FD0012636060228286805D0B04389
:101740002860FFF733F904462FE0B0432860FFF725
:101750002DF9074604E0FFF729F9C01B022822D81B
:1017600028688001F7D4E16AA06AEA680843216B1F
:10177000FD231B049A4311430843E8602868304363
:101780002860FFF713F9044604E0FFF70FF9001B88
:10179000022808D828688001F7D509E0FFF706F984
:1017A000001B022801D90320F8BD28688001F5D468
:1017B0000020F8BD0120F8BD0010024000E000004C
:1017C000643A00082C0000204010024000700040E5
:1017D00088130000F7B5054604462035287882B006
:1017E000012814D001202870022068702168CA20C6
:1017F00048622168532048622068806800264005BE
:10180000FF27002812DAFFF7D1F800900AE0022043
:1018100005B0F0BDFFF7CAF80099411A7D20C0005D
:1018200081421CD82068C0684007F3D420688168D2
:1018300001229202914381602068C1688022114098
:10184000204A8918C160FFF7B1F800900DE0FFF75A
:10185000ADF80099411A7D20C000814205D9206869
:101860004762032068702E70D2E72068C068400786
:10187000EDD521680398486120688168C908C900CE
:10188000816020688168049A114381600E48026873
:10189000012109050A43026082680A4382602068C8
:1018A00081680122920311438160206881681211CE
:1018B0001143816020684762012068702E7000200B
:1018C000A6E700007FFBFFFF000401407047000017
:1018D00010B504460068C068400509D52046FFF7EA
:1018E000F5FF2068C16880221140054A8918C1604F
:1018F000012004490005486101202034607010BDBA
:101900007FFBFFFF0004014070B5040005D02546B1
:1019100020356878002802D006E0012070BD002044
:101920002870204600F042F8022068702168CA2022
:101930004862216853204862204600F06BFFFF2177
:101940000028206803D0416204206870E5E78268BF
:10195000154B1A408260226890686368A669184334
:1019600023693343184390602268E068106120685F
:10197000026923891B041A4302612068C26880231C
:101980009A43C2602068C26C92089200C264E26905
:10199000606902432068C36C1A43C26420684162D4
:1019A00001206870002070BDBFFF8FFF10B5006878
:1019B0000549884207D10548016901229204114373
:1019C0000161FFF7A1FA10BD00280040401002405D
:1019D00070B5040006D025464035687C00260028F6
:1019E00002D005E0012070BD2E74204600F02EF8D4
:1019F0000220687420680168402291430160A16858
:101A0000606822690843E168114308436169012263
:101A10000843A169520211400843E1690843216A61
:101A20000843A16A084321680860A0690421000CEA
:101A30000840616A0843216848602168E06A0861DB
:101A4000666501206874002070BD000000B5006864
:101A50000C4985B0884212D10B48416B8214114366
:101A60004163E020009002200190002103200390B8
:101A700002910491052069460007FEF7DDFE05B0DE
:101A800000BD00000030014000100240F8B50446DF
:101A900000276846078026464036707C012802D021
:101AA000707C22287ED100290CD0002A0AD0002B7D
:101AB00008D0307C012875D001203074707C01285A
:101AC00002D003E00120F8BD322070746765A26384
:101AD000A387E3872163A386E386A764E7640125E0
:101AE000A06A6D03A84207D120680168A94301607C
:101AF000206801682943016020680168490603D411
:101B000001684022114301600121FF20E268C902FF
:101B100005308A42616866D1002904D081420CD127
:101B2000E08E012809D1206B21680088C860206BF5
:101B3000801C2063E08E401EE086E08E002843D1AA
:101B4000A06AA84246D1206801680122120311430D
:101B500001603FE02068C068A16B0880A06B801C1A
:101B6000A063B0E0002202212046069B00F076FE32
:101B700000287DD1206B21680088C860206B801C04
:101B80002063E08E401EE086E08E002808D1A06A27
:101B9000A84205D1206801680122120311430160A7
:101BA000002200E0CCE001212046069B00F056FE1A
:101BB00000287FD12068C068A16B0880A06B801CC2
:101BC000A063E08F401EE087E08E0028CAD16068E5
:101BD00000287BD1002201212046069B00F03EFE1A
:101BE000002867D1B6E7002904D081420BD1E08EEE
:101BF000012808D1206B411C216321680078C8604E
:101C0000E08E401EE086E08E002845D1A06AA84202
:101C100005D12068016801221203114301600022EE
:101C200001212046069B00F019FE002842D12068C1
:101C3000C068A16B087046E0002202212046069B86
:101C400000F00CFE002835D1206B411C2163216877
:101C50000078C860E08E401EE086E08E00280AD141
:101C6000A06AA84207D1206802680121090300E0A8
:101C700020E00A430260002201212046069B00F07A
:101C8000EDFD002816D12068C268A06B411CA1633D
:101C90000270E08F401EE087E08E0028CCD16068A3
:101CA000002813D1002201212046069B00F0D6FD1A
:101CB000002802D00320F8BD08E02068C168A06BAE
:101CC000421CA2630170E08F401EE087A06AA84218
:101CD0000FD1002201212046069B00F0BFFD002805
:101CE00002D0606D02210EE02068C068694608805D
:101CF0000888012280212046069B00F0AFFD0028C5
:101D000004D0606D202108436065D3E70120707422
:101D1000A06AA84211D120688168C943C9060CD4C1
:101D2000616D0222114361650168A9430160206869
:101D30000168294301603774C4E637740020BAE7AC
:101D40000220B8E7042204490428086902D090431D
:101D5000086170471043FBE700E000E070470000B7
:101D6000094910B5401E884201D9012010BD074C19
:101D700060610321081F00F0E5FC0020A06107203E
:101D80002061002010BD0000FFFFFF0000E000E028
:101D900010B5FFF7E3FF10BD70B502462032137D8A
:101DA000012B1BD001231375022454750468656848
:101DB0007026B5436560046865680E6835436560E4
:101DC0000468A5688026B543A560006884684968F2
:101DD0000C43846053750020107570BD022070BDE7
:101DE00070B5040005D025462035687D002802D056
:101DF00006E0012070BD00202875204600F00AF89A
:101E000002206875211D206800F028FE01206875F9
:101E1000002070BD006801218907884204D1034871
:101E2000816B012211438163704700000010024062
:101E30000222014620314A750268136801200343DB
:101E400013604875002070470268D36801210B4376
:101E5000D360006802680A43026000207047F8B54A
:101E6000054604462035287D012817D001272F7507
:101E700002206875226890687726FF23B0431B0212
:101E8000984390600868502837D00EDC202857D03F
:101E900006DC00284ED0102840D14EE00220F8BDCC
:101EA000302850D0402839D13CE060282DD070280F
:101EB00017D001221203801A0ED090422ED1CB6887
:101EC0004A688968206800F0E9FD2068816801227D
:101ED00092031143816021E020688168C908C9002C
:101EE000F8E7CB684A688968206800F0D7FD216868
:101EF0008868B0433043886010E0CA684968206849
:101F000000F0DFFD5021206806E0CA6849682068BB
:101F100000F0E8FD6021206800F0CBFD6F75002027
:101F20002875F8BDCA684968206800F0CAFD4021DC
:101F30002068F1E700212068EEE710212068EBE738
:101F400020212068E8E730212068E5E7704770B578
:101F50000446006801690025C9438907002915DB8B
:101F6000C168C943890711D4E91E016101202075A8
:101F7000206880698007204602D0FFF7E7FF04E071
:101F800000F078F8204600F076F8257520680169A1
:101F9000C943490717D4C168C943490713D4042169
:101FA000C943016102202075206880698005800F87
:101FB000204602D0FFF7CAFF04E000F05BF820469D
:101FC00000F059F8257520680169C943090716D43E
:101FD000C168C943090712D40821C943016104201B
:101FE00020752068C0698007204602D0FFF7AEFF49
:101FF00004E000F03FF8204600F03DF82575206829
:102000000169C943C90617D4C168C943C90613D4B5
:102010001021C9430161082020752068C06980052E
:10202000800F204602D0FFF791FF04E000F022F875
:10203000204600F020F8257520680169C943C907CA
:1020400008D1C168C943C90704D1891E016120466E
:1020500000F012F820680169C943490609D4C16833
:10206000C943490605D44021C9430161204600F017
:1020700004F870BD704770477047704770B5040032
:1020800005D025466035687A002802D006E0012098
:1020900070BD00202872204600F026F824206872C7
:1020A00020680168490849000160606A002802D080
:1020B000204600F02AFD204600F0BCFD0128E7D0B4
:1020C000206841680922D2029143416020688168FA
:1020D0002A22914381602068016801221143016036
:1020E000204600F077FD70BDF0B50068104985B05E
:1020F00088421BD10F48816B012252041143816336
:102100000120022400250326694671C105273F07E7
:10211000694638460495FEF78FFB04200090049032
:1021200001AA70C269463846FEF786FB05B0F0BDCD
:102130000044004000100240FFB5064604466036E9
:10214000707A83B00D46202858D1002D0CD0059808
:10215000002809D00120A1680003814207D120692D
:10216000002804D1E80702D0012007B0F0BD307A82
:10217000012843D0012030720020E06621207072D7
:10218000FEF714FC019027464037059838820598E1
:10219000788218E0788A401E7882069800900022A3
:1021A00080212046019B00F041FE002818D101202B
:1021B000A1680003814202D12069002812D0216861
:1021C000287888626D1C788A0028E3D106980090F0
:1021D000002240212046019B00F028FE002808D064
:1021E0000320C2E728882168C005C00D8862AD1CA5
:1021F000E9E72020707200203072B6E70220B4E7D1
:10220000FEE701688A69D243920701D400228A62FC
:1022100000688169C943C90703D08169012211435C
:1022200081617047F7B5044600680E468069C04377
:10223000C0062CD420272546403520688069C0433D
:1022400080060FD5701CF8D0002E05D0FEF7AEFB2F
:102250000299401AB042F0D96F700020A87028701F
:102260000320FEBD21681020C8612068C761204698
:10227000FFF7C7FF20684168064A1140416004200B
:1022800060646F700020A87028700120FEBD0020DF
:10229000FEBD000000E800FEF8B5044616461848EA
:1022A0001D46DAB20090079F0023204600F060F838
:1022B0003A462046069900F0BAF8002803D0606C30
:1022C00004281BD018E02846F5B2012809D021685F
:1022D000300A88623A462046069900F0A8F800289D
:1022E000EDD1206885620097002240212046069BA0
:1022F00000F052F8002800D00320F8BD0120F8BDFE
:1023000000200080F8B50446164618481D46DAB28B
:10231000C3020090079F204600F02AF83A46204664
:10232000069900F084F8002803D0606C04281BD0C4
:1023300018E02846F5B2012809D02168300A8862E1
:102340003A462046069900F072F80028EDD1206840
:1023500085620097002280212046069B00F01CF831
:10236000002800D00320F8BD0120F8BD0020008027
:10237000F0B50668059C7568064F600D38438543C7
:102380008805800D110408431843204305437560F8
:10239000F0BD0000FF63FF03F8B51C4617460E466C
:1023A000054611E0601C0FD0002C05D0FEF7FEFAA8
:1023B0000699401AA04207D92020403568700020B5
:1023C000A87028700320F8BD2868816930468843CA
:1023D00004D00020B842E5D00020F8BD0120F9E784
:1023E00070B516460D4604461AE032462946204688
:1023F000FFF718FF002801D0012070BD002D04D088
:10240000FEF7D4FA801BA8420AD9616C2020014350
:102410006164403460700020A0702070032070BDA3
:1024200020688069C0438006DFD4002070BD70B58D
:1024300016460D4604461CE0324629462046FFF764
:10244000F1FE002801D0012070BD681C11D0002DC4
:1024500004D0FEF7ABFA801BA8420AD9616C202099
:1024600001436164403460700020A070207003203C
:1024700070BD20688069C0438007DDD4002070BD36
:1024800010B5052002210007FEF784FA002801D0CC
:10249000002010BD012010BDF0B51A4887B0C16AF8
:1024A00001263143C162C16A31400591C16A0225EA
:1024B0002943C162C06A144F284005900022294672
:1024C0003846FEF76CFA00240194029469463846B7
:1024D00000950394FEF7B0F9009505252D070194AA
:1024E0000294694603942846FEF7A6F91820009046
:1024F00002946946019603942846FEF79DF907B0B9
:10250000F0BD0000001002400004005010B5124859
:1025100010490160E121C900416000218160016131
:10252000416181610122C161C2600162FEF78EFAE0
:10253000002800D0FEE700210748FEF73DFA0028FA
:1025400000D0FEE700210448FEF75BFA002800D027
:10255000FEE710BD005400406400002010B50E4896
:102560000C4901607F22826000214160016141616C
:10257000FF228161C260C161FFF7C6F9002800D067
:10258000FEE704223C210448FFF724F9002800D08C
:10259000FEE710BD00280040B001002010B50E4835
:1025A0000C490160FF210531416000218160C1605B
:1025B0000122016152028261416101621022416285
:1025C000C26181620721C162FFF702FA002800D0D0
:1025D000FEE710BD00300140B000002010B5012121
:1025E000124886B0890701607D210024C9018460FA
:1025F000416064210461C160FFF7F2FB002800D054
:10260000FEE701200003009069460848FFF727FC19
:10261000002800D0FEE7049404A904480594FFF7BD
:10262000BBFB002800D0FEE706B010BD080100206B
:1026300010B50C480A4901604B21C90141600021D5
:102640008160C16001618161C1610C2201624261EE
:102650004162FFF713FD002800D0FEE710BD000027
:102660000044004040010020704770B50525044635
:102670002D07002210212846FEF791F9204600F090
:1026800047F90446012210212846FEF788F9204622
:1026900070BD70B5052504462D070022102128467F
:1026A000FEF77DF9E006C00E00F032F9FF2000F0E1
:1026B0002FF90446012210212846FEF770F9204622
:1026C00070BDF8B5052714460D4606463F070022A3
:1026D00010213846FEF763F9304600F019F9064636
:1026E00003E028786D1C00F013F92046641EE4B264
:1026F0000028F6D1012210213846FEF750F9304665
:10270000F8BD70B505250E4604462D0700221021A0
:102710002846FEF744F9E006C00E203000F0F8F835
:102720000446304600F0F4F8012210212846FEF756
:1027300036F9204670BDC00610B5C00E2030FFF738
:10274000C0FF10BD8307FF22DB0E9A408907090EE8
:10275000994000280BDA0007000F08388308084862
:102760009B001818C36993430B43C36170478308E8
:1027700004489B001B181868904308431860704772
:1027800000ED00E000E400E010B5FEF7DFFB0348D9
:10279000082201781143017010BD0000D40100200F
:1027A0007047000070B517490023CA681206120F5F
:1027B00018D18A6B154CD500134A02D512682240F5
:1027C00009E08E6B01252D072E438E6312688E6BF8
:1027D0002240AE438E63A24204D103218903884282
:1027E00000D101230A4801684908490019430160E2
:1027F0000068C007C00F984201D0012070BD0020C2
:1028000070BD000000100240007000400018000081
:102810000020024070B504460068C168490613D420
:102820000021C943C160FEF7C1F87D260546F600C8
:1028300006E0FEF7BBF8401BB04201D9032070BD93
:102840002068C0684006F4D5002070BD10B502486D
:10285000FFF73EF810BD0000B0010020F8B51D469E
:1028600016460F460446FEF7A1F831462646403686
:10287000009000291ED043E0681C1BD0002D05D01D
:10288000FEF794F80099401AA84213D920684168CD
:10289000E022914341602068026840218A4302603F
:1028A00023E021680A6882430A6021680A680243BB
:1028B0000A601FE02068816838468843DCD124E044
:1028C000681C1DD0002D06D0FEF770F80146009858
:1028D000081AA84214D920684268E0218A4342605D
:1028E000206801684022914301600120A16A4003F1
:1028F0008142D6D001207074002030740320F8BDCE
:102900002068816838468843DAD00020F8BD00008E
:1029100001B582B0012000030090012301AA02A9A1
:102920000248FFF7B3F8684600790EBDB0000020FA
:10293000704710B5FEF75EFAFFF72AFA10BD0000E7
:1029400010B5264898B001680322D2029143C21400
:10295000891801602248816B020411438163214878
:1029600001681213114301601820009001200590A6
:1029700006900520002440030890079409946846B7
:10298000FEF732FD002800D0FEE70F200D900E94D8
:102990000F941094002111940DA8FEF70FFC00284D
:1029A00000D0FEE7202012900003139012A8FEF73B
:1029B0005DFB002800D0FEE7FEF7B4FC7D21C900D6
:1029C000FDF7B4FBFFF7CCF90420FFF7BBF90022B9
:1029D0001146501EFEF760FA18B010BD007000409E
:1029E00000100240000401401048016882151143A4
:1029F0000160C1680E4A1140C16001680D4A114072
:102A000001608168490849008160016801229204DF
:102A100091430160C168FD2212049143C16000210D
:102A200001610549C0038860704700000010024042
:102A30000C40FF88F6FFF6FE00ED00E010B50548FB
:102A4000FFF785FA04484178491C41708178491C98
:102A5000817010BD080100200000002030B5026820
:102A600001239B070C4C984201D0A04203D1702552
:102A7000AA434D682A43984201D0A04204D10323BF
:102A80001B029A43CB681A4302608A68C2620968D3
:102A900081620121416130BD0008014030B5846888
:102AA000FF252D021B021343AC430B4323438360DA
:102AB00030BD826870239A430A4307210A4382602B
:102AC000704730B5036A046A64086400046284696C
:102AD000F025AC43120122430A24A3430B43826135
:102AE000036230BD30B5036A1024A34303628469D6
:102AF000036A0F252D031203AC432243A024A343F2
:102B0000090119438261016230BD10B5818CC9078A
:102B100007D001684A6801235B049A43836A1A4319
:102B20004A60818C890707D501684A6801231B0424
:102B30009A43C36A1A434A60818C490707D50168E2
:102B40004A6801239B049A43036B1A434A60818CB1
:102B5000090707D501684A680123DB039A43436BE1
:102B60001A434A60818CC90607D50268916801231F
:102B70001B039943836B19439160818C890607D5A8
:102B800001688A6801235B039A43C36B1A438A6016
:102B9000818C490612D503685A6801210905046C25
:102BA0008A4322435A60026C8A4207D10268516804
:102BB00003235B059943436C19435160818C0906DB
:102BC00007D501684A680123DB04806C9A430243FD
:102BD0004A6010BDF8B500260446C666FDF7E6FE5D
:102BE000054620680068124F000709D501212B46D1
:102BF000002249052046009700F018F900280DD161
:102C00002068006840070BD501212B46002289056A
:102C10002046009700F00AF9002801D00320F8BDF3
:102C2000202060346072A07226720020F8BD00007F
:102C3000FFFFFF01FEB50446016880682269E36971
:102C400010436269102700261A4310430A6835466C
:102C50006D4B1A4002430A60216848680322120340
:102C60009043E26810434860684A2168A069914235
:102C700001D0226A10438A680B231B029A43024345
:102C80008A60634A2068634990420AD1C8680C216F
:102C900008402BD004282DD0082829D00C2810D18A
:102CA0000EE05A4A90420CD1C968032080020140CC
:102CB0001CD01015091A1DD0091A19D0814200D153
:102CC00008270220FEF750F90190504B5149226825
:102CD0004039D81300929A4235D1002F0CD0022FE0
:102CE0000DD0042F12D0082F1CD113E00027E8E7E5
:102CF0000227E6E70427E4E7FEF71AFB08E0086886
:102D0000C00601D5444805E0444803E0FEF730FB27
:102D1000002873D0626851005118814202D8110313
:102D2000814201D2012569E0010E0602500800230C
:102D300030185941FDF710FA03210902384A411AA7
:102D4000914259D9EEE7E26982422DD13B0000F071
:102D5000CAF80906080B24192424241F240001980A
:102D600012E0FEF7F5FA0FE008686168C00602D5C8
:102D700048082C4A01E02C4A48088018FDF7D6F98B
:102D800086B20BE0FEF7F4FA616840004A08F4E707
:102D90006168012248081204EFE7012531090901A1
:102DA0003007400F084327E03B0000F09CF809077C
:102DB0000A0D061D060606290600B3E7FEF7B8FA57
:102DC00014E0FEF7C5FA11E008686168C00602D594
:102DD0004A08114801E011484A081018FDF7A6F901
:102DE00081B20098C16009E0FEF7C2FA61684A0842
:102DF0008018FDF79BF980B22168C8602846FEBDA7
:102E000061684A08E9E70000F369FFEF0048004005
:102E1000004400404010024000093D000024F4003E
:102E2000FFFC0F0000127A000048E801FFB581B0F6
:102E300017460E4604460A9D1DE0681C1BD0002D57
:102E400005D0FDF7B3FD0499401AA84213D92068B4
:102E50000168FF22A132914301602068816849081E
:102E600049008160202060346072A07200202072CE
:102E7000032005B0F0BD2068C1693046884304D006
:102E80000020B842D9D00020F3E70120F9E7000084
:102E90000FB410B504A9074B02AA039800F040F83C
:102EA000044602A9002000F0E3F9204610BC08BC4B
:102EB00004B01847713200082021020C01D0102103
:102EC0001046020A01D010460839020901D0104606
:102ED000091F820801D01046891E420801D0881EB1
:102EE0007047081A704730B47446641E2578641C15
:102EF000AB4200D21D46635D5B00E31830BC18474F
:102F000002E008C8121F08C1002AFAD170477047B2
:102F1000002001E001C1121F002AFBD17047000010
:102F2000FFB58FB00546002606E025280AD0129A84
:102F3000119990476D1C761C28780028F5D13046F1
:102F400013B0F0BD002402940121B54A009400E0C2
:102F500004436D1C2B780846203B98401042F7D163
:102F600028782A280ED002222878014630390929EB
:102F700016D802990A2359433039401814436D1C5E
:102F80000290F1E7109802C802911090002904DA2B
:102F900001204003044348420290022004436D1C78
:102FA00028782E2817D10420044368786D1C2A281D
:102FB0000CD110986D1C02C8009110900BE0009984
:102FC0000A225143303940186D1C00902878014680
:102FD00030390929F3D928786C2810D006DC4C2820
:102FE0001AD068280ED06A2817D104E0742813D0AC
:102FF0007A2812D110E00120400504430CE00121A1
:10300000090501E0032109050C436978814203D1D8
:103010000120000524186D1C6D1C2878692874D0C7
:1030200006DC00288BD0632827D0642806D16CE00A
:103030006E2808D073282CD0752878D0129A119950
:103040009047761C5FE06002400F022809D00328F9
:103050000DD00428109801680DD00E60001D10904E
:1030600051E01098F21701680E604A60F6E7109878
:1030700001680E80F2E70E70F0E710986A4601785A
:103080001173001D10900020507303A801900120BF
:1030900005E0109802C8019110900020C04361071C
:1030A0000CD5002700E07F1C00998F420FDA874281
:1030B000F9DB0199C95D0029F5D108E0002700E09E
:1030C0007F1C8742FCDB0199C95D0029F8D1029879
:1030D0002146C01B0290129B119A00F0B3F8801990
:1030E000C61907E0019801990078491C0191129ACC
:1030F000119990477F1EF5D22146129B119A029892
:1031000000F090F886196D1C16E70A2001901099BE
:1031100001C910916102490F032900D100B20429AD
:1031200000D140B2002803DA40422D2103E00DE037
:10313000210504D52B216A461173012103E0E10723
:1031400011D02021F7E70CAF0C9114E00A20019078
:10315000109901C910916102490F032900D180B271
:10316000042900D1C0B20021EDE70199FCF7DEFF90
:1031700030317F1E39700028F7D104A8C01B2030E1
:103180000190600704D5012000048443009801E009
:10319000012000900199884201DD401A00E00020E2
:1031A000411800900C9809180298401A0290E00308
:1031B00006D42146129B119A029800F043F8861912
:1031C00000200D9008E003A9085C129A119990471D
:1031D0000D98401C761C0D900C998842F3DBE0039F
:1031E0000CD52146129B119A029800F02BF88619F3
:1031F00004E0129A302011999047761C0099481EDD
:1032000000900029F5DC05E03878129A7F1C1199AE
:103210009047761C0199481E01900029F4DC6BE769
:1032200009280100F8B5044600251E461746880403
:1032300004D405E039462020B0476D1C641EF9D542
:103240002846F8BDFFB50446002581B01E46C803D8
:1032500001D5302700E02027880404D505E0384652
:103260000399B0476D1C641EF9D5284605B0F0BD22
:103270000A68531C0B6010707047F8B50546808CC7
:103280000C46762801D0772859D12A4601233232BC
:10329000D021284600F026FB002850D12E462036AB
:1032A000B07C582801D0602849D1B622E0212846B8
:1032B00000F0C0FB002842D101236A46F3212846D2
:1032C00000F010FB0028F7D168460078C007F3D162
:1032D000284600F0A5FA002832D0B07C602804D13E
:1032E000284600F013FB00282AD06079617840015D
:1032F00089000843C2B2F521284600F09BFB002854
:103300001DD12078012801D100202070E078A1781B
:1033100040018900084321780843C7B2B07C602887
:1033200006D12279F221284600F084FB002806D13C
:103330003A46F421284600F07DFB002801D0002009
:10334000F8BD0120F8BD0322027000214170052163
:103350008170C1700171427170470000FFB506466F
:1033600004462036B07C83B01D46602805D0002D71
:1033700001D000201860002503E0002D01D00823B3
:1033800000E006236A46F721204600F0ABFA002849
:1033900002D0002007B0F0BD6A46107823880103F0
:1033A00050785F0000010143907800090143D07814
:1033B00012790003120110436A4652791209104330
:1033C000C2100011C01AD21B02270423E75F40433A
:1033D000E35E00137A435843D21280131718B800E3
:1033E00038188030049A001210603A46204600F0E7
:1033F0006FF80599002D086036D06846C088E28BCA
:1034000040BA80031205821A4B2120208902205ED7
:10341000791A4843101A0122920380180222B256E8
:10342000237F4A434B43D9120123DB039212C9186D
:103430004A4391129A0189181A22A25EC01351437D
:103440009A10891889134843C1134943227EC91130
:1034500051430911401A054901D5002002E0884274
:1034600000DD084600132860012093E700000019E2
:10347000FEB51C0015460E4601D002AB00E000234D
:1034800001AA6946FFF76AFF00281DD00098FCF7E3
:10349000E5FF0E4F3946FCF72FFF30600198FCF72F
:1034A000E8FF0721C943FCF765FF3946FCF724FF15
:1034B0002860002C07D00298FCF7DBFF0921C943E4
:1034C000FCF758FF20600120FEBD00000000C8424C
:1034D000F7B505464C48D11743141018594184B02C
:1034E0000C46024623460290FCF78CFE1022AA5E90
:1034F00006460F46D317FCF785FE009001910E207B
:10350000285E2346C117029AFCF77CFE0246C30BD5
:10351000480418435304009A01999A1848410C2111
:10352000695EC900121C4141009201910A22AA5E03
:1035300030463946D317FCF765FE070A0A0608200D
:10354000285E17430E12C1172346029AFCF75AFE53
:10355000030D0A031A430003314638185141012272
:10356000D203001C5141EA880023FCF74BFE4C10AB
:10357000CE172046304345D0012105980905081A89
:10358000C1174208C907C30700981143019A181AC6
:1035900091411E4A0023FCF735FE22463346FCF7D4
:1035A0000BFE06460B46DF04720B0C4616203A4310
:1035B000285E6713C1173B460092FCF723FE3B468B
:1035C000009AFCF71FFE470ECA0117434A16142043
:1035D0000092285E3246C1172346FCF713FE4A03C9
:1035E000C00C1043C9142346009AF4195341201803
:1035F0004B411906000A08431221695E090140186F
:1036000007B0F0BD0020FBE7000CFEFF350C00000A
:10361000FDF7F8FBFFF794F9FEF73EFFFFF708F818
:10362000FEF7BCFFFEF772FFFEF7D8FF002211463F
:103630000F20FDF731FC0F20FDF724FC002211467E
:103640001C20FDF729FC1C20FDF71CFC0022114664
:103650000120FDF721FC0120FDF714FC002211469A
:103660000220FDF719FC0220FDF70CFCFEF776FFA7
:103670005948FEF739FD58483838FEF7D9FB564807
:103680003838FEF7E1FB554860210160544941603C
:10369000FDF706FCFDF740FC4F48E4380446FFF711
:1036A00052FE504876218184014634318162FDF713
:1036B00015F86420FDF7B4F821464A48FFF7DDFD10
:1036C000454C042594340028207875D0FB2108400F
:1036D0002070C820FDF7A4F8404C143C7D20C000A9
:1036E000FDF79EF802214048FDF754F900283F48B5
:1036F000017863D0FD221140384B01701B1F1A4620
:10370000083A111D3748FFF7B3FE00283748017803
:1037100057D0FB2211400170A0684100090E3349C7
:103720000A7851D0FB231A400A70FCF7D0FE304EC5
:10373000054631462069FCF7A2FDFCF7C8FE0746A6
:103740003146E068FCF79BFDFCF7A8FE0646A8B2F0
:10375000FCF796FE0022274BFCF718FEFCF7CCFE88
:10376000224902464E7030128870CF70380A0871B4
:103770004A71100A8871CD71280A087209211B4804
:1037800000F024F92078012821D01BA11748093026
:10379000FFF77EFB82B2124B1449A2809B1E0931B7
:1037A0000D48FEF7C9FC1948016804221143016065
:1037B000FDF7BAFB92E7FFE7284389E702221143AE
:1037C0009AE704221143A6E704231A43ACE700203A
:1037D00020700FA1DAE70000400100201400002053
:1037E000010001003000002000040050D40100203E
:1037F000000020410000E83F5472616E736D6974EF
:10380000204261642121210A0D0000000070004067
:103810005472616E736D6974204F4B0A0D00000085
:1038200010B504460246882100F0B2F8002856D0B0
:10383000A21C8A21204600F0ABF800284FD0221DA0
:103840008C21204600F0A4F8002848D0A21D8E212B
:10385000204600F09DF8002841D0224608329021F1
:10386000204600F095F8002839D022460A329221ED
:10387000204600F08DF8002831D022460C329421E9
:10388000204600F085F8002829D022460E329621E5
:10389000204600F07DF8002821D0224610329821E1
:1038A000204600F075F8002819D0224612329A21DD
:1038B000204600F06DF8002811D0224614329C21D9
:1038C000204600F065F8002809D0224616329E21D5
:1038D000204600F05DF8002801D0012010BD002036
:1038E00010BD00003EB50C46818C074D019300923F
:1038F00049040295090C806A01232246FDF700F96C
:10390000002800D001203EBD881300001CB50246EF
:10391000044601231832A121FFF7E4FF002827D134
:1039200022461A32E121204600F032F800281FD04A
:10393000224601231C32E3212046FFF7D3FF002853
:1039400016D16A46E421204600F022F800280FD064
:1039500001AAE521204600F01BF8002808D02246E5
:1039600001232232E7212046FFF7BCFF002801D0C7
:1039700000201CBD6846008801060005090D000FE7
:103980000143E183684680880009208401201CBD32
:103990007FB51446828C02235204150C03AA0092B0
:1039A000094E019302960A46806A01232946FDF7D3
:1039B000A7F8002802D0002004B070BD68468089B6
:1039C00020800120F8E700008813000070B505464C
:1039D0000C460520002208210007FCF7E0FF2246E4
:1039E0002946A020FEF76DFEFCF7C2FE0F4C02E058
:1039F0002078142803D2FEF743FD0128F8D12820AF
:103A0000FCF7FAFE0720FEF744FE094C800601D5BC
:103A1000012020700720FEF73CFE01460720FEF73C
:103A200070FEFCF75BFE207870BD000002000020F5
:103A30000000002037B5828C84B05204140C06AA12
:103A40000092074D0123029501930A46806A2146A0
:103A5000FDF704F9002800D0012007B030BD0000B8
:103A60001027000000000000000000000102030415
:103A700006070809030406080C101820300000008F
:103A80000001020304000000A83A00080000002022
:103A900030000000002F0008D83A00083000002055
:103AA00018060000102F00080000000000000000B1
:103AB0000000000000000000000000000000000006
:103AC000000000004D4554454F004D4554454F0002
:083AD0000000000080841E00CC
:04000005080000C12E
:00000001FF
